:04000000B031542E99
:100006002A003B08003A0319212821000D17063063
:10001600FD00FD0B0C2800008D170630FD00FD0BC2
:10002600122800008D130630FD00FD0B1828000075
:0E0036000D130630FD00FD0B1E280000080013
:100044002A003B08003A03195C28F1017108073CB7
:10005400031C49282C00BD1B322821008D13342891
:1000640021008D170630FD00FD0B362800000D170A
:100074000630FD00FD0B3C2800000D130630FD008A
:10008400FD0B422800002C00BD35F10A2828210070
:100094008D170630FD00FD0B4D2800000D170630AE
:1000A400FD00FD0B532800000D130630FD00FD0B71
:0600B400592800000800BD
:1000BA0020007008F100F0010830FC007108F40C0F
:1000CA0003186B28FC0B6428F10100340310702814
:1000DA00F40C0318F107F10CF00CFC0B6D28080066
:1000EA002A003B08003A03198D2821008D13063097
:1000FA00FD00FD0B7E2800000D170630FD00FD0BEC
:10010A00842800008D170630FD00FD0B8A280000A8
:02011A000800DB
:10011C002A0039082C003907BC0003202A003A08B1
:10012C002C00BD0022202C00BD0122202C00380800
:10013C00B03EBD0022202C003C080F3C031CAA281A
:10014C003C08BA00BB01BB283C08F200F236F23680
:10015C00F236F2367208BB007208F000F035F0355A
:10016C00F035F03570083C02BA003A08BD00222088
:10017C002C003B08103EBD00222003202A003A0828
:10018C002C00BD00222040302C00BD002220080095
:10019C002000F801F9011030FC00710DF80DF90D7B
:1001AC007408F8027508031C750FF9020318E5288A
:1001BC007408F80775080318750FF9070310F00D8C
:0801CC00F10DFC0BD328080023
:1001D40003202A003A082C00BD00222040302C00C5
:1001E400BD0022202C002F08B8002E08B9008E2054
:1001F4002C00B301320833020318B0293308300746
:1002040084000030313D85000008003A031D0C29AC
:10021400B50115293308300784000030313D8500CD
:1002240020300002B500B4013408043C031CA829A2
:100234003508F0000530F4005D202C003408F00788
:100244000030F13D433070078400BB30713D8500C0
:100254000008B6002F08023A013003190030F100FB
:100264002F08043A013003190030F0007008F1053A
:100274002F08063A013003190030F0007108F00528
:1002840003196D29B6194829B7134929B717B6199F
:100294004D2937134E29371736195229B7125329C6
:1002A400B71636195729371258293716B6185C2944
:1002B400B7115D29B715B6186129371162293715A9
:1002C40036186629B7106729B71436186B29371002
:1002D4006C2937148D2936197129B7137229B71768
:1002E40036197629371377293717B6187B29B712A9
:1002F4007C29B716B6188029371281293716361883
:100304008529B7118629B71536188A2937118B29FB
:100314003715B71037103708BD0022202A003B08D4
:10032400043A0130031D0030F1003B08053A013066
:10033400031D0030F0007108F0040319A5292C00F6
:100344003708BD0022202C00B40A1629BD01222042
:100354002C00BD0122202C00B30AFC282F0AB8006F
:100364002E08B9008E202C00B30132083302031882
:10037400732A3308300784000030313D85000008BB
:10038400003A031DC729B501D0293308300784007A
:100394000030313D850020300002B500B40134083E
:1003A400043C031C6B2A3508F0000530F4005D2082
:1003B4002C003408F0070030F13D4330700784000E
:1003C400BB30713D85000008B6002F08023A0130A9
:1003D40003190030F1002F08043A013003190030EA
:1003E400F0007008F1052F08063A013003190030B7
:1003F400F0007108F0050319282AB61B032AB71365
:10040400042AB717B61B082A3713092A3717361BCD
:100414000D2AB7120E2AB716361B122A3712132AC0
:100424003716B61A172AB711182AB715B61A1C2A7E
:1004340037111D2A3715361A212AB710222AB71464
:10044400361A262A3710272A3714502A361B2C2A04
:10045400B7132D2AB717361B312A3713322A371709
:10046400B61A362AB712372AB716B61A3B2A3712E3
:100474003C2A3716361A402AB711412AB715361ABC
:10048400452A3711462A3715B6194A2AB7104B2A76
:10049400B714B6194F2A3710502A37143708BD003D
:1004A40022202A003B08043A0130031D0030F100E9
:1004B4003B08053A0130031D0030F0007108F004D8
:1004C4000319682A2C003708BD0022202C00B40A26
:1004D400D129BD0122202C00BD0122202C00B30A09
:0604E400B7297520080095
:1004EA002C00B201053032020318852A320830077F
:1004FA0086000030313D870020308100B20A772A19
:10050A003208300786000030313D87008101B2038E
:10051A0032083007B3000030313DB4000A30F4002D
:10052A00F5012E08F0002F08F100CE207808F0001F
:10053A007908F1003030F0072C00330886003408BF
:10054A008700700881000A30F400F5012E08F000D7
:10055A002F08F100CE2070082C00AE007108AF0001
:10056A0000307106031DBB2A00307006031DBE2A27
:08057A00C02AB2038D2A08001B
:100582002C00AF012900EF010130EE002C002E08F3
:10059200AF00AF35AF35AF35AF352A00320803199A
:1005A200D52A08302C00AF0729006E080319DC2A6F
:1005B20004302C00AF0729006F080319E32A023028
:1005C2002C00AF072A0038080319E92A2C00AF0AC9
:1005D20003202A003A082C00BD0022202C002F08FC
:1005E200BD00222075200630FC003030FD00FD0BDE
:1005F200F82AFC0BF82A000004302C00AF0203207A
:100602002A003A082C00BD0022202C002F08BD0031
:10061200222075200630FC003030FD00FD0B0F2B30
:08062200FC0B0F2B0000080087
:10062A00FB14FB1F1F2BFF30F300F200F100F00058
:08063A00FA0DF20CFF3008007C
:0E064200F201F101F001F801F30100300800AF
:100650007B15FB1F322B0130F300F201F101F00199
:08066000FA0DF20CFF30080056
:08066800FA1FF2130030080034
:0A0670001D30FD00FD0B3A2B0800C1
:10067A0020002230FC00F801F901FA01FB01FC0319
:10068A000319722B0310FB0CFA0CF90CF80CF30C7F
:10069A00F20CF10CF00C031C442BFC030319642B21
:1006AA007408F80775080318750FF9077608031810
:1006BA00760FFA0777080318770FFB07482B740899
:1006CA00F80775080318750FF90776080318760FE7
:0C06DA00FA0777080318770FFB070800E9
:1006E6007408F8027508031C750FF9027608031CD6
:1006F600760FFA027708031C770FFB02F30D07301B
:10070600FC00730DF80DF90DFA0DFB0D7408731C42
:100716009A2BF8027508031C750FF9027608031C5C
:10072600760FFA027708031C770FFB02A72BF80750
:1007360075080318750FF90776080318760FFA0778
:1007460077080318770FFB07F30DFC0B842B720D4C
:10075600F80DF90DFA0DFB0D7408731CC02BF80289
:100766007508031C750FF9027608031C760FFA024A
:100776007708031C770FFB02CD2BF80775080318C3
:10078600750FF90776080318760FFA077708031826
:10079600770FFB07F20D0730FC00720DF80DF90D0F
:1007A600FA0DFB0D7408721CE62BF8027508031C83
:1007B600750FF9027608031C760FFA027708031CF8
:1007C600770FFB02F32BF80775080318750FF90767
:1007D60076080318760FFA0777080318770FFB07D2
:1007E600F20DFC0BD02B710DF80DF90DFA0DFB0D6A
:1007F6007408721C0C2CF8027508031C750FF9029C
:100806007608031C760FFA027708031C770FFB02A3
:10081600192CF80775080318750FF90776080318D9
:10082600760FFA0777080318770FFB07F10D0730E5
:10083600FC00710DF80DF90DFA0DFB0D7408711C15
:10084600322CF8027508031C750FF9027608031C92
:10085600760FFA027708031C770FFB023F2CF80786
:1008660075080318750FF90776080318760FFA0747
:1008760077080318770FFB07F10DFC0B1C2C700D86
:10088600F80DF90DFA0DFB0D7408711C582CF802C1
:100896007508031C750FF9027608031C760FFA0219
:1008A6007708031C770FFB02652CF80775080318F9
:1008B600750FF90776080318760FFA0777080318F5
:1008C600770FFB07F00D0730FC00700DF80DF90DE2
:1008D600FA0DFB0D7408701C7E2CF8027508031CBB
:1008E600750FF9027608031C760FFA027708031CC7
:1008F600770FFB028B2CF80775080318750FF9079D
:1009060076080318760FFA0777080318770FFB07A0
:10091600F00DFC0B682C70189E2C7408F8077508EF
:100926000318750FF90776080318760FFA07770884
:080936000318770FFB0708000E
:10093E00833021009D052C002408F000F035F035A1
:10094E00700821009D0438239D149D1CAF2CAC2CE7
:10095E001C08F100F0011B08F0040030F10408003F
:10096E000330FC009530FD00FD0BBB2CFC0BBB2CAB
:02097E0008006F
:100980002A003B08043A0130031D0030F1003B0807
:10099000053A0130031D0030F0007108F00403191E
:1009A000DE2C2C002508AE002408AF002608B0007D
:1009B0002708B1002808B200EA20382D2A003B0899
:1009C000023A0130031D0030F1003B08033A0130C8
:1009D000031D0030F0007108F0040319042D0730E6
:1009E000F0002C002508F4005D20043070072C0076
:1009F000AE002408AF00AF352608B0002708B100CC
:100A00002808B200EA20382D2A00B8012C0024085A
:100A1000F000F035F0357008083EAE00C1222C0021
:100A20002508AE00C12201302A00B8002C00A9011F
:100A3000280829020318382D2908260784000030C9
:100A4000273D85000008F1007108AE00AE36AE36D5
:100A5000AE36AE36C1222C002908260784000030AD
:100A6000273D85000008AE00C1222C00A90A182DE0
:020A700008007C
:100A7200FB09FA09F909F809F80A0319F90A03192D
:080A8200FA0A0319FB0A08003F
:100A8A002C00AA01AB012408AC002508AD00803077
:100A9A002506F00080307002031D552D0030240217
:100AAA000318632D0130AA000030AB002408003C73
:100ABA00AC002508031C013EAD01AD022C08AE00B6
:100ACA002D08AF002608B0002708B10075220630AD
:100ADA00A8000030A9002908003C031D762D28082B
:100AEA00003C0318912D2808260786002908273D6F
:100AFA00870001302802F0000030293BF10070081D
:100B0A00260784007108273D85000008810001300E
:100B1A00A8020030A93B702D260886002708870006
:100B2A00203081002A082B040319B72DA801A90136
:100B3A002808260784002908273D85000008203A4E
:100B4A00031DAB2DA80A0319A90A9D2D0130A8027D
:100B5A000030A93B2808260786002908273D870078
:060B6A002D30810008009F
:060B7000FB15FF30080038
:100B76007C18F12DFC18C22D7C19102EBB2DA1015D
:100B86007208031DE22D7108F2007008F100780862
:100B9600F000F801A1157208031DE22D7108F2009C
:100BA6007008F100F001A11121167208031DE22D53
:100BB6007108F200F101A11572080319042E21082B
:100BC600F302031D031C082E0310F21BF12DF80D72
:100BD600F00DF10DF20DF30BE82D082E7B1B701CAA
:100BE6000C2EF81F0C2EF00A0319F10A0319F20A4B
:100BF600031D0C2EF20CF10CF00CF30A0319102E47
:100C06000C2E0130FC002123132E0230FC00282379
:100C1600132E0430FC003423132E0830FC00152359
:040C260000000800C2
:100C2A002000FB01FA01F9018030F800F10CF00C08
:100C3A00031C282E7408F90775080318750FFA079C
:100C4A000318FB0A0310F01F302E7408FA07750800
:100C5A000318750FFB07FB0CFA0CF90CF80C031CB4
:100C6A001B2E7B08F3007A08F2007908F100780855
:040C7A00F00008007E
:100C7E00A1017208031D542E7108F2007008F100D4
:100C8E00F001A1157208031D542E7108F200F10136
:100C9E00A111211672080319622E2108F302031DF9
:100CAE00031C662E0310F21B6A2EF00DF10DF20DD1
:100CBE00F30B5A2E662E0130FC0021236D2E0230CE
:0E0CCE00FC0028236D2E0430FC0034230800A7
:100CDC007B14FB1F792EF201FA1FFF30F200F1009A
:0A0CEC00F000FA0DF20CFF300800D2
:100CF6002000FB0173080319B72E7208FA00F217D9
:100D06008E30F302F31FBA2EF309F30A083073028A
:100D1600031C9D2EF300F10D7208F100F20108305C
:100D26007302031C9D2EF300F10DF1017308031DE0
:100D36000310A52E73080319A52E0310F20CF10C4F
:100D4600F30BA02E7B1B711CAF2E031CAF2EF10ADA
:100D56000319F20AF21BC62EFA1FC92EF209F1096F
:100D6600F10A0319F20AC92EF201F101C92E7B1408
:100D7600FB1FCC2EF201FA1FCC2EFF30F200F10041
:100D8600FA0DF20CCC2E0130FC00CE2E0030FC0009
:100D9600CE2EFF30FC00FC080319D22E6E267108F9
:080DA600F0007208F1000800E2
:100DAE00200072087606A100F801F9017308770297
:100DBE00031CF92E7708FD007308F7007D08F30079
:100DCE007608FD007208F6007D08F2007508FD0039
:100DDE007108F5007D08F1007408FD007008F4003C
:100DEE007D08F00077080319722F7208FA00F217C7
:100DFE00F61777087302F70003192C2F08307702C5
:100E0E00031C222FF7007408F9007508F400760809
:100E1E00F500F60108307702031C222FF700740844
:100E2E00F9007508F400F50108307702031C222F33
:100E3E007A08F200722F770803192C2F0310F60C84
:100E4E00F50CF40CF90CF70B252FA11F392FF9090E
:100E5E00F409F509F609F90A0319F40A0319F50A52
:100E6E000319F60A7908F80774080318740FF007C7
:100E7E0075080318750FF10776080318760FF20739
:100E8E00A11B522F031C622FF20CF10CF00CF80C6C
:100E9E00F30F622F6E2F0318662FF809F009F10970
:100EAE00F209F80A0319F00A0319F10A0319F20AF2
:100EBE008030FA066A2F0130FC00BB25742F0230F9
:100ECE00FC00BB25742F0430FC003F26742F083025
:0E0EDE00FC001523742F0030FC0000000800FB
:100EEC0003202A003A082C00BD00222080302C0060
:100EFC00BD0022202B006B082C00BD002220752089
:020F0C000800DB
:100F0E00A0302C00A0000F30A100A201A301A03040
:100F1E00F0000F30F1000030F2000030F3002B0033
:100F2E006B08F4006C08F500F601F7013D2370081C
:100F3E002C00A0007108A1007208A2007308A30083
:100F4E0000307302031DB52F00307202031DB52F42
:100F5E0002307102031DB52FB23070020318B82F84
:100F6E00E72FB230A0020230A13B0030A23BA33BE0
:100F7E000530F00070080319CA2FA336A20CA10C7D
:100F8E00A00CFF3EC22F2008F0002108F10022081D
:100F9E00F2002308F3000130A0020030A13BA23B77
:100FAE00A33B70087104720473040319E72F000049
:100FBE000000000000000000000000000000CA2F2A
:020FCE00080019
:100FD00020007008F800FB01FC019E30F300FA01CC
:0E0FE000F201F101F0010230FC00BB25080017
:100FEE0012001E00F003031DF72FF103031DF72F50
:020FFE000800E9
:1010000064002A00D401D5012800311C0C282A00D4
:101010005208D4075308D53D2800B11C14282A00D3
:101020005A08D4075B08D53D2800311D1C282A002A
:101030005808D4075908D53D2800B11D24282A0096
:101040005608D4075708D53D2800311E2C282A0001
:101050006008D4076108D53D2800B11E34282A0055
:101060006B08D4076C08D53D2800311F3C282A00A6
:101070006908D4076A08D53D2A008030273AF00075
:10108000803055067002031D472854080F3C031892
:101090006E2832305407F0000030553DF1007008E2
:1010A000D4007108D50070082C00A4007108A500B8
:1010B0006230A6000530A7008031452588312A001E
:1010C00063082B00A0002A0064082B00A1002E302A
:1010D000A2002A0065082B00A300A3282A005408B8
:1010E0002C00A4002A0055082C00A5006230A600A0
:1010F0000530A7008031452588312A006408203A50
:101100000319862864082B00A00089282B003030A2
:10111000A0002E30A1002A006508203A0319942867
:1011200065082B00A20097282B003030A2002A006F
:101130006608203A0319A02866082B00A300A328FC
:101140002B003030A3002A006D08043A0130031D43
:101150000030F1006D08053A0130031D0030F00049
:101160007108F0040319ED2828004708013A031D0F
:10117000BD2804302B00EB00C0282B000630EB000C
:101180006B082C00A4001030A5003C30A6000430F1
:10119000A7000230A8008031C02488312B006B08E2
:1011A0002C00A4005830A5003930A6000430A70058
:1011B0000230A8008031C02488312B006B082C003D
:1011C000A4002830A500A030A6000530A7000430F8
:1011D000A8008031C024883172292A006D08023AA3
:1011E0000130031D0030F1006D08033A0130031D8A
:1011F0000030F0007108F004031936292800470870
:10120000013A031D06292B00EB0109292B000130AF
:10121000EB006B082C00A4000930A5003630A600B6
:101220000430A7000230A8008031C02488312B0090
:101230006B082C00A4000F30A5004430A600043039
:10124000A7000230A8008031C02488312B006B0831
:101250002C00A4000B30A500A030A6000530A7008C
:101260000430A8008031C024883172292A006D081A
:10127000013A031D722928004708013A031D43293A
:101280002B00EB0146292B000130EB006B082C00F2
:10129000A4000930A5004130A6000430A7000230A8
:1012A000A8008031C02488312B006B082C00A400DA
:1012B0000F30A5003F30A6000430A7000130A80081
:1012C0008031C02488312B006B082C00A4000B3027
:1012D000A500A030A6000530A7000430A80080318A
:1012E000C024883164002A00D401D50127005B1C8A
:1012F0007E292A004808D4074908D53D2700DB1C71
:1013000086292A004608D4074708D53D27005B1DDB
:101310008E292A004E08D4074F08D53D2700DB1D33
:1013200096292A004C08D4074D08D53D27005B1E9E
:101330009E292A004A08D4074B08D53D2700DB1E0A
:10134000A6292A004408D4074508D53D27005B1F7D
:10135000AE292A004208D4074308D53D2A00540884
:101360002C00A4002A0055082C00A5006230A6001D
:101370000530A7008031452588312A0064082B00FC
:10138000A0002A0065082B00A1002A0066082B0097
:10139000A2002A0067082B00A3002A006D08043A67
:1013A0000130031D0030F1006D08053A0130031DC6
:1013B0000030F0007108F0040319172A28004708CC
:1013C000013A031DE72906302B00EB00EA292B0028
:1013D0000430EB006B082C00A4001030A500CF30C7
:1013E000A6000330A7000230A8008031C024883155
:1013F0002B006B082C00A4005830A500D830A600A4
:101400000330A7000230A8008031C02488312B00AF
:101410006B082C00A4002830A500A030A6000530E1
:10142000A7000430A8008031C02488319C2A2A00FB
:101430006D08023A0130031D0030F1006D08033AD7
:101440000130031D0030F0007108F0040319602A18
:1014500028004708013A031D312A01302B00EB0018
:10146000332A2B00EB016B082C00A4000930A500E7
:10147000D530A6000330A7000230A8008031C02478
:1014800088312B006B082C00A4000F30A500D2304F
:10149000A6000330A7000230A8008031C0248831A4
:1014A0002B006B082C00A4000B30A500A030A60078
:1014B0000530A7000430A8008031C02488319C2A60
:1014C0002A006D08013A031D9C2A28004708013AAA
:1014D000031D6E2A01302B00EB00702A2B00EB015C
:1014E0006B082C00A4000930A500DC30A6000330F6
:1014F000A7000230A8008031C02488312B006B087F
:101500002C00A4000F30A5002A30A6000430A7004C
:101510000130A8008031C02488312B006B082C00DA
:10152000A4000B30A500A030A6000530A7000430B1
:0C153000A8008031C0248831640008004D
:10153C0020007008F8007108F000F101F201F301CD
:10154C00FB01FC019630F300FA01F01FB32AF809F5
:10155C00F009F80A0319F00AFA177008F100780874
:0E156C00F000F801F20180313F2688310800BE
:10157A007408003A031DD62A7508003A031DD62AB4
:10158A007608003A031DD62A7708003A031DD62AA0
:10159A00FF30F000FF30F1007F30F200FF30F3003F
:1015AA00782B200077080319642B73080319692B19
:1015BA00720876068039FA00F217F617A101720846
:1015CA00F8007108FC007008FD007408FD02750837
:1015DA00031C750FFC027608031C760FF802F8014B
:1015EA00FC01FD01031C002B0310F20CF10CF00CA2
:1015FA00F80C0130A1007708F302031C0A2B7E3095
:10160A002107F30703186E2B0F2B7E302107F307F0
:10161A00031C732B1830FA07FD0DFC0DF80DF00DA5
:10162A00F10DF20DA10D7408F0027508031C750F77
:10163A00F1027608031C760FF202760DA104211C32
:10164A00282B7D14332B7408F00775080318750FBF
:10165A00F10776080318760AF2077D10FA031F309D
:10166A007A05031D112B7B1B7D1C5A2B0310F00DD1
:10167A00F10DF20DA10D7408F0027508031C750F27
:10168A00F1027608031C760FF202760D2104013965
:10169A00FD070318FC0A0319F80A031D5A2BF80C54
:1016AA00FC0CFD0CF30A03196E2BFA1FF8137808C9
:1016BA00F2007C08F1007D08F0000030772B013041
:1016CA008031B8258831772B023080312123883147
:1016DA00772B0430803115238831772B08308031FD
:0816EA002823883100000800EC
:1016F2002000FB017308031D77080319CF2B720822
:101702007606FA007708F3077E30031C8C2BF3026F
:101712000318D42B8F2BF302031CD92B7208F80069
:101722007108FC007008FD00F817F6170310F201AB
:10173200F101F0011830A1007D1CA92B7408F007FB
:1017420075080318750FF10776080318760FF2076C
:10175200F20CF10CF00CF80CFC0CFD0C0310A10BBC
:101762009D2BF21BB92BF80DF00DF10DF20DF303C9
:101772007B1B701CCB2BF81FCB2BF00A0319F10A31
:101782000319F20A031DCB2BF20CF10CF00CF30A35
:101792000319D42BFA1FF2130030DD2B01308031F4
:1017A20021238831DD2B0230803115238831DD2B56
:0C17B2000430803128238831000008003A
:1017BE007408003A031DF82B7508003A031DF82B28
:1017CE007608003A031DF82B7708003A031DF82B14
:1017DE00FF30F000FF30F100FF30F2007F30F300F9
:1017EE00942C2000FC01F71BFC0AFD01FB01FA0101
:1017FE00F901F801730872047104700403198D2C39
:10180E0073087706A000A01BFD09F71F192CF40919
:10181E00F509F609F709F40A0319F50A0319F60A88
:10182E000319F70AF31F262CF009F109F209F3093F
:10183E00F00A0319F10A0319F20A0319F30A7308DD
:10184E007704A000A01B492C803173238831FC1B28
:10185E00662CFD1F8D2CF009F109F209F309F00A2F
:10186E000319F10A0319F20A0319F30AF809F9091F
:10187E00FA09FB09F80A0319F90A0319FA0A0319F6
:10188E00FB0A8D2CF71F602CF31B5A2C7308FB00E0
:10189E007208FA007108F9007008F800F301F201FD
:1018AE00F101F001302CF301F201F101F001F00A27
:1018BE000034F309F209F109F009FC172B2CF80A90
:1018CE000319F90A0319FA0A0319FB0A74087802B4
:1018DE00031D302C75087902031D302C76087A0210
:1018EE00031D302C77087B02031D302CFB01FA01FF
:1018FE00F901F801F00A0319F10A0319F20A0319A2
:10190E00F30AF31F302CA0012016FF34A0017C1C1B
:0C191E00932C803139258831003E0800F0
:10192A002C00A1012B006D08F1000130F0007108B4
:10193A000319A22CF035FF3E9D2C70082C00A00044
:10194A002B006B0884006C08850070080005F10004
:10195A0071080130031D0030F0006F08F00603190A
:10196A00D72C6E08003C0318C22C8031B72488316A
:10197A008031B7248831EE03B62C6B0884006C08DA
:10198A0085002C0020080005F10071080130031DB4
:10199A000030F0002B006F08F0060319D72CFF3037
:0C19AA002C00A1002C002108F000080017
:1019B600813022009700171BE12CDE2C01302C0011
:1019C600A40080319F24883170082B00EB00710839
:1019D600EC008030033AF200803071067202031D7B
:1019E600F62C7008E83C031CFD2C6B08F0006C0814
:1019F600F100492D823022009700171B032D002D80
:101A060001302C00A40080319F24883170082B00FF
:101A1600EB007108EC008030033AF200803071066A
:101A26007202031D182D7008E83C031C212D6B085B
:101A3600F0006C08F100F035F10D492D83302200DD
:101A46009700171B272D242D01302C00A400803170
:101A56009F24883170082B00EB007108EC00710898
:101A6600043A031D382D00307006031D3E2D01304B
:101A76002800A900402D2800A9012B006B08F000C2
:0E1A86006C08F100F035F10DF035F10D08009F
:101A940020007008F8007108F0007208F100730863
:101AA400F200F301FB01FC019E30F300FA01F21F86
:101AB400672DF809F009F109F209F80A0319F00A87
:101AC4000319F10A0319F20AFA170230FC008031F3
:061AD400BB25883108006B
:101ADA002000FA017308031D7A147708031DFA140B
:101AEA007A080319B82D033A0319832D7A18802D21
:101AFA00F61FB62DB42DF21FB42DB62D72088039FB
:101B0A00FA00F21376088039F6137A060319912D32
:101B1A007A080319B42DB62D770873020319982D84
:101B2A00031CAC2DB02D7608720203199F2D031CDD
:101B3A00AC2DB02D750871020319A62D031CAC2D0E
:101B4A00B02D740870020319B82D0318B02DFA08C5
:101B5A000319B62DB42DFA080319B42DB62D0314A2
:0E1B6A0008000310080003140315080008000B
:101B7800813022009700171BC22DBF2D2C00A40115
:101B880080319F24883170082B00EB007108EC002D
:101B98008030033AF200803071067202031DD62DA0
:101BA8007008E83C031CDD2D6B08F0006C08F100A0
:101BB8001C2E823022009700171BE32DE02D2C00ED
:101BC800A40180319F24883170082B00EB00710834
:101BD800EC008030033AF200803071067202031D77
:101BE800F72D7008E83C031C002E6B08F0006C0809
:101BF800F100F035F10D1C2E833022009700171BE1
:101C0800062E032E2C00A40180319F2488317008F1
:101C18002B00EB007108EC007008F2007108F3006B
:101C2800F235F30DF235F30D7208F0007308F10088
:021C38000800A2
:101C3A002B006B08F0006C08F1000330F400003050
:101C4A00F50080311526883170082B00EB007108E9
:101C5A00EC008030F200803071067202031D372ECC
:101C6A007008503C031C3C2EF001F1010F2F80300C
:101C7A00F00080306C067002031D452E6B08AB3CE9
:101C8A00031C4C2EF430EB070030EC3D0B2F803058
:101C9A00013AF00080306C067002031D562E6B0864
:101CAA00483C031C5D2EFE30EB070030EC3D0B2F49
:101CBA008030023AF00080306C067002031D672EF5
:101CCA006B08463C031C6E2E1830EB070130EC3DC6
:101CDA000B2F8030033AF00080306C067002031D2F
:101CEA00782E6B08343C031C7F2E2930EB07013019
:101CFA00EC3D0B2F8030043AF00080306C06700205
:101D0A00031D892E6B084C3C031C902E3630EB07C2
:101D1A000130EC3D0B2F8030083AF00080306C0621
:101D2A007002031D9A2E6B08853C031CA12EAE304F
:101D3A00EB070130EC3D0B2F80300C3AF00080307D
:101D4A006C067002031DAB2E6B08FA3C031CB22E04
:101D5A00E430EB070130EC3D0B2F8030123AF000F3
:101D6A0080306C067002031DBC2E6B080F3C031CEE
:101D7A00C32E1230EB070230EC3D0B2F8030163A9F
:101D8A00F00080306C067002031DCD2E6B08E63C15
:101D9A00031CD42E8830EB070230EC3D0B2F803029
:101DAA001B3AF00080306C067002031DDE2E6B08B1
:101DBA00EA3C031CE52EE730EB070230EC3D0B2F23
:101DCA008030213AF00080306C067002031DEF2E3D
:101DDA006B08363C031CF62E2030EB070330EC3D33
:101DEA000B2F8030293AF00080306C067002031DF8
:101DFA00002F6B08043C031C072F4830EB07033005
:101E0A00EC3D0B2F5C30EB070330EC3D6B08F00028
:061E1A006C08F100080055
:101E200028004808003A031D4E2F2B004F181B2F87
:101E300022008D111D2F22008D152B00CF18232F6E
:101E400022000C11252F22000C152B004F192B2FCF
:101E500022000D122D2F22000D162B00CF19332F2B
:101E600022008C11352F22008C152B004F1A3B2F8E
:101E700022008D123D2F22008D162B00CF1A432FEA
:101E800022008C12452F22008C162B004F1B4B2F4B
:101E900022000C124D2F22000C16862F2B004F18FB
:101EA000542F22008D15562F22008D112B00CF1894
:101EB0005C2F22000C155E2F22000C112B004F19F5
:101EC000642F22000D16662F22000D122B00CF1951
:101ED0006C2F22008C156E2F22008C112B004F1AB4
:101EE000742F22008D16762F22008D122B00CF1A10
:101EF0007C2F22008C167E2F22008C122B004F1B71
:101F0000842F22000C16862F22000C122A006E0845
:101F10002B00EB002A006F082B00EC008031872794
:041F200088310800FC
:101F24002A003B08013C03189E2FAF302B00EB0026
:101F3400803176278831B02F2A003B08013A031DEF
:101F4400B02F0130B200B8012C00AE018031C122A3
:0E1F540088312C00AE018031C1228831080096
:101F62002B004F18B72F22008E13B92F22008E1785
:101F72002B00CF18BF2F22008E11C12F22008E15E9
:101F82002B004F19C72F22000E13C92F22000E1744
:101F92002B00CF19CF2F22000E11D12F22000E15A8
:101FA2002B004F1AD72F22008E12D92F22008E1605
:101FB2002B00CF1ADF2F22008E10E12F22008E1469
:101FC2002B004F1BE72F22000E12E92F22000E16C4
:101FD2002A006E082B00EB002A006F082B00EC0091
:081FE2008031872788310800D7
:101FEA002B0029082300910092019513151315144B
:061FFA001308F0000800CE
:1020000064002B00500829005706031D0A285608B3
:102010002B004F060319DE282B004F082900D6009D
:102020002B0050082900D70000302B005006031D5C
:102030001B2801304F06031D5D282A006D08043A55
:102040000130031D0030F1006D08053A0130031D19
:102050000030F0007108F00403193D2802302C0014
:10206000A4004030A5002E30A6000230A7000430A6
:10207000A8008031C024903159282A006D08003A08
:102080000319512801302C00A4000430A500293088
:10209000A6000230A7000430A8008031C02490318F
:1020A00059282A006D08003A031D592822000D17EF
:1020B0008D172900D601D701DE282B004F082900F3
:1020C000D6002B0050082900D7002B004F082C0009
:1020D000A4002B0050082C00A5006230A60005309B
:1020E000A7008031452590312A0065082B00A0000B
:1020F0002E30A1002A0066082B00A2002A006708E3
:102100002B00A3002A006D08043A0130031D0030A3
:10211000F1006D08053A0130031D0030F000710830
:10212000F0040319A22802302C00A4004030A500BE
:10213000A030A6000530A7000430A8008031C024DC
:102140009031DE282A006D08003A0319B6280130C4
:102150002C00A4000430A500A030A6000530A70084
:102160000430A8008031C0249031DE282A006D0898
:10217000003A031DDE288030F00080302B0050062E
:102180007002031DC5284F08963C031CCB28220073
:102190000D138D17DE288030F00080302B005006A4
:1021A0007002031DD5284F08FA3C031CDB282000D1
:1021B0000D138D13DE2820000D178D136400080009
:1021C0000D302B00EB000030EC00ED011930EE007B
:1021D000EF0188319524903170082B00CF000D302D
:1021E000EB000030EC000130ED001930EE00EF01A3
:1021F00088319524903170082B00CF040D30EB000E
:102200000030EC000230ED001930EE00EF018831B3
:10221000952490312B004F08F00403191229013046
:062220002800B5000800D3
:1022260000302B00D7000030D8004830D900853068
:10223600DA00640021006A08003A0130031D00300C
:10224600F10024005908013A0130031D0030F00066
:102256007008F10580302B005206F00080307002C5
:10226600031D3729643051020130031C0030F00091
:102276007108F0050319FD2920006F08003A031DB7
:10228600F9292A006D08043A0130031D0030F100D7
:102296006D08053A0130031D0030F0007108F004A6
:1022A6000319862928003208013A031D69290430DA
:1022B6002C00A4001030A500DF30A6000030A700D7
:1022C6000830A8008031C0249031772904302C00D2
:1022D600A4001030A500D630A6000030A7000830B4
:1022E600A8008031C024903106302C00A4001030A4
:1022F600A500B930A6000230A7000830A80080313A
:10230600C0249031F9292A006D08023A0130031DD4
:102316000030F1006D08033A0130031D0030F00073
:102326007108F0040319C62928003208013A031D72
:10233600AA292C00A4010930A5005830A6000330B4
:10234600A7000830A8008031C0249031B7292C009E
:10235600A4010930A5004F30A6000330A7000830BD
:10236600A8008031C024903101302C00A40009302F
:10237600A5004630A6000330A7000830A80080312B
:10238600C0249031F9292A006D08013A031DF92964
:1023960028003208013A031DDE292C00A401093069
:1023A600A5006130A6000330A7000730A8008031E1
:1023B600C0249031EB292C00A4010930A500A830D7
:1023C600A6000330A7000730A8008031C024903152
:1023D60001302C00A4000930A500A030A60003306F
:1023E600A7000730A8008031C024903101302000BA
:1023F600EF00072A20006F08013A031D052A8831DD
:10240600002090312000EF0164002B0050082600C8
:102416006A06031D112A69082B004F0603193B2E75
:102426002B004F082600E9002B0050082600EA0082
:1024360028003208003A031D7C2A80302B00500603
:10244600F00080307002031D2A2A64304F02031CFC
:10245600512A05304F07F0000030503DF10070085A
:10246600CF007108D00070082C00A4007108A500E8
:102476006230A6000530A7008031452590312A003C
:1024860064082B00A0002A0065082B00A1002A0082
:1024960066082B00A2005730A3007B2A4F082C00A9
:1024A600A4002B0050082C00A5006230A6000530C1
:1024B600A7008031452590312A006608203A031985
:1024C600682A66082B00A0006B2A2B003030A0007B
:1024D6002E30A1002A006708203A0319762A6708D9
:1024E6002B00A200792A2B003030A2005730A3001F
:1024F600C42A2B0080305006F0008030033A700268
:10250600031D872AE7304F020318A62A4F082C001E
:10251600A4002B0050082C00A5006230A600053050
:10252600A7008031452590312A0065082B00A000C0
:102536002A0066082B00A1002A0067082B00A200CB
:102546005730A300C42A4F082C00A4002B005008C3
:102556002C00A5006230A6000530A7008031452575
:1025660090312A0064082B00A0002A0065082B0081
:10257600A1002A0066082B00A2002A0067082B008B
:10258600A2002A006D08043A0130031D0030F10054
:102596006D08053A0130031D0030F0007108F004A3
:1025A6000319E32A2C00A4014030A500A030A600A0
:1025B6000530A7000430A8008031C0249031F52AE8
:1025C6002A006D08003A0319F52A2C00A4010430EC
:1025D600A500A030A6000530A7000430A800803171
:1025E600C0249031640020006F08013A031D3B2E81
:1025F60028003108003A0130031D0030F1002700A1
:102606005B08003A0130031D0030F0007108F00548
:102616000319152B2B0051082900EA002B0052083C
:102626002900EB0029006A08F0006B08F1008831E8
:102636009E22903170082B00E3007108E4007208B6
:10264600E5007308E6000030F4000030F50048307D
:10265600F6008530F7006308F0006408F1006508AD
:10266600F2006608F3008831BD22903170082B0015
:10267600DF007108E0007208E1007308E2006308F9
:10268600F4006408F5006508F6006608F7000030F7
:10269600F0000030F1004830F2008530F300883158
:1026A600BD2290312B005F08F4006008F500610838
:1026B600F6006208F7008031D726903170082B00AB
:1026C600DF007108E0007208E1007308E2002800EC
:1026D6006F08F0008031E82790312B005F08F40086
:1026E6006008F5006108F6006208F7008831792372
:1026F60090310030F4000030F5002030F6008230D2
:10270600F7008831BD2290311F30F4008530F50086
:102716006B30F6007B30F70088317923903100303A
:10272600F4000030F5000030F6007F30F70080310D
:10273600D72690317008F4007108F5007208F6008B
:102746007308F7000030F0000030F1000030F200AE
:102756007F30F3008831BD22903170082B00E700EE
:102766007108E8007208E9007308EA006708D700F4
:102776006808D8006908D9006A08DA005108F0002C
:102786005208F10088319E22903170082B00E30038
:102796007108E4007208E5007308E6000030F400F2
:1027A6000030F5004830F6008530F7006308F00089
:1027B6006408F1006508F2006608F3008831BD225E
:1027C60090310030F4000030F5000030F600803023
:1027D600F7008031D726903170082B00DF00710892
:1027E600E0007208E1007308E2006308F400640880
:1027F600F5006508F6006608F7000030F0000030C6
:10280600F1004830F2008530F3008831BD22903166
:102816002B005F08F4006008F5006108F600620806
:10282600F7008031D72690317008F4007108F50062
:102836007208F6007308F7000030F0000030F1006F
:102846000030F2008130F3008831BD2290317008EB
:102856002B00DB007108DC007208DD007308DE0067
:102866000030F4000030F5000030F6007F30F7004D
:102876006708F0006808F1006908F2006A08F300CA
:1028860088316D2590310130031C0030F00070084E
:102896000319562C00302B00D7000030D80000302A
:1028A600D9007F30DA002B000030F4000030F5004C
:1028B6000030F6007F30F7005B08F0005C08F1009E
:1028C6005D08F2005E08F30088316D259031013015
:1028D600031C0030F000700803197A2C00302B001E
:1028E600DB000030DC000030DD007F30DE002B0036
:1028F6004F08F0005008F10088319E2290312B00DD
:102906005708F4005808F5005908F6005A08F70069
:102916008831792390312B005B08F4005C08F500C0
:102926005D08F6005E08F700883179239031803122
:102936007B26903170082B00D3007108D40057080D
:10294600F0005808F1005908F2005A08F3005B0835
:10295600F4005C08F5005D08F6005E08F7008831B3
:10296600792390310030F4000030F5004830F6004D
:102976008530F70088317923903180317B2690317C
:1029860070082B00D5007108D60080307106F20061
:1029960080307202031DD12C64307002031CD72CC8
:1029A6006330D5000030D60028003208003A031DF7
:1029B600382D80302B005406F00080307002031D45
:1029C600E62C64305302031C0D2D05305307F0002E
:1029D6000030543DF1007008D3007108D40070082F
:1029E6002C00A4007108A5006230A6000530A700DF
:1029F6008031452590312A0064082B00A0002A006A
:102A060065082B00A1002A0066082B00A20057309B
:102A1600A300372D53082C00A4002B0054082C00CB
:102A2600A5006230A6000530A7008031452590310B
:102A36002A006608203A0319242D66082B00A000F8
:102A4600272D2B003030A0002E30A1002A00670869
:102A5600203A0319322D67082B00A200352D2B00D2
:102A66003030A2005730A300802D2B008030540652
:102A7600F0008030033A7002031D432DE730530205
:102A86000318622D53082C00A4002B0054082C00B8
:102A9600A5006230A6000530A7008031452590319B
:102AA6002A0065082B00A0002A0066082B00A1005A
:102AB6002A0067082B00A2005730A300802D530878
:102AC6002C00A4002B0054082C00A5006230A600A0
:102AD6000530A7008031452590312A0064082B0077
:102AE600A0002A0065082B00A1002A0066082B001A
:102AF600A2002A0067082B00A2002A006D08043AEB
:102B06000130031D0030F1006D08053A0130031D48
:102B16000030F0007108F0040319A02D04302C00D9
:102B2600A4004030A500A030A6000530A700043060
:102B3600A8008031C0249031D12D2A006D08023AB8
:102B46000130031D0030F1006D08033A0130031D0A
:102B56000030F0007108F0040319BF2D2C00A40109
:102B66000D30A500A030A6000530A7000430A8004F
:102B76008031C0249031D12D2A006D08013A031D01
:102B8600D12D2C00A4010C30A500A030A6000530E4
:102B9600A7000430A8008031C02490312B005508CE
:102BA6002C00A4002B0056082C00A5006230A600BD
:102BB6000530A7008031452590312A0066082B0094
:102BC600A0002A0067082B00A1002A006D08043A1D
:102BD6000130031D0030F1006D08053A0130031D78
:102BE6000030F0007108F0040319082E06302C009E
:102BF600A4004C30A500A030A6000530A700023086
:102C0600A8008031C02490313B2E2A006D08023A7C
:102C16000130031D0030F1006D08033A0130031D39
:102C26000030F0007108F0040319282E01302C0042
:102C3600A4000E30A500A030A6000530A700023083
:102C4600A8008031C02490313B2E2A006D08013A3D
:102C5600031D3B2E01302C00A4000D30A500A03032
:102C6600A6000530A7000230A8008031C0249031AC
:042C760064000800EE
:102C7A0064008831DB2490317008CF007108D000DD
:102C8A000030D01BFF30D100D2008831BC259031F2
:102C9A007008D3007108D4000030D41BFF30D5006F
:102CAA00D60028003408013A031D702E2B004F0865
:102CBA00EB005008EC0088311D26903188319E22A5
:102CCA00903170082B00D7007108D8007208D9001B
:102CDA007308DA00852E2B004F08F0005008F10027
:102CEA005108F2005208F30088314A2590317008E1
:102CFA002B00D7007108D8007208D9007308DA00CF
:102D0A0080305606F000803052067002031D972E5E
:102D1A0051085502031D972E50085402031D972E81
:102D2A004F085302031CA02EE730CF000330D00017
:102D3A00D101D201EA2E53084F07F0005408503D42
:102D4A00F1005508513DF2005608523DF300643037
:102D5A00F400F501F601F70180313D2390312B0093
:102D6A004F08F4005008F5005108F6005208F70021
:102D7A005308F4025408F53B5508F63B5608F73B4E
:102D8A008831DF23903170082B00CF007108D00002
:102D9A007208D1007308D2008030F40080307306C4
:102DAA007402031DE22E7208003C031DE22E710814
:102DBA00033C031DE22E7008E73C0318EA2EE730B5
:102DCA00CF000330D000D101D20128003308F0002F
:102DDA008031E82790312B005708F4005808F50095
:102DEA005908F6005A08F7008831792390310030E3
:102DFA00F4000030F5007A30F6008830F7008831A8
:102E0A00BD22903170082B00D7007108D8007208D3
:102E1A00D9007308DA00F430F400FD30F5003430DC
:102E2A00F6007F30F7008831BD22903170082B0000
:102E3A00D7007108D8007208D9007308DA00280090
:102E4A003208013A031D522F2B005708F000580888
:102E5A00F1005908F2005A08F3005708F40058081C
:102E6A00F5005908F6005A08F7008831792390319D
:102E7A000030F4000030F5004830F6008430F700E6
:102E8A008831BD22903170082B00D7007108D80014
:102E9A007208D9007308DA007A2F2B005708F0005D
:102EAA005808F1005908F2005A08F3005708F400CC
:102EBA005808F5005908F6005A08F70088317923AE
:102ECA0090310030F4000030F5002030F6008130F7
:102EDA00F7008831BD22903170082B00D7007108A5
:102EEA00D8007208D9007308DA005708F0005808A9
:102EFA00F1005908F2005A08F3000030F4000030DB
:102F0A00F5000030F6007E30F7008031D726903188
:102F1A0070082B00D7007108D8007208D90073080E
:102F2A00DA0080317B26903170082A00DE007108B1
:102F3A00DF0080307106F20080307202031DA72F75
:102F4A000A3070020318AE2F0130DC000030DD00B9
:102F5A00D02F80302B005206F00080307002031D03
:102F6A00C02F00305102031DC02F00305002031D34
:102F7A00C02F64304F020318C82FE7302A00DC0044
:102F8A000330DD00D02F2B004F082A00DC002B0075
:082F9A0050082A00DD000800C8
:102FA2002B004718D72F22000E10D92F22000E1403
:102FB2002A006E082B00EB002A006F082B00EC00A1
:082FC2008031872790310800DF
:102FCA002000F8010830FC00700DF80D7408F802B2
:102FDA000318F12FF8070310F00DFC0BE92F080076
:103000002B0047082300910092012B004808230061
:1030100093001513951315150B08F0008B135530FD
:103020009600AA3096009514F01B18288B131928C7
:0C3030008B171511951C1D281A2808008C
:10303C002800B1012700DB012B00CF0188311027BC
:10304C00983127005B082B00CF008831B1279831CD
:10305C002A006E082B00EB002A006F082B00EC00F6
:08306C0080318727983108002C
:103074002B00CB01CC0164302A0050022B00C80085
:1030840000302A00513B2B00C9000130CD00003034
:10309400CE002A00DE01DF01640078302B00CA0074
:1030A400C7014A0847020318B02820008D185C287D
:1030B40076145D2876100D19612803146228031014
:1030C4007618682803186828761069287614200072
:1030D4000D186E2803146F2803107618752803182A
:1030E4007528761076287614761C82289031E02094
:1030F400983128003508013A031D8228B501942B24
:1031040090313D26983180302B004C06F000803001
:103114002A005F067002031D92285E082B004B02F2
:103124000318A4282A005E082B00CB002A005F089D
:103134002B00CC002A005C082B00CD002A005D087F
:103144002B00CE001030FC009430FD002B00FD0B52
:10315400A828FC0BA8280000C70A532864004B08C1
:103164002800AF002B004C082800B0002B004D08AD
:10317400CF004E08D00090310020983180302B00D1
:103184004E06F00080307002031DCA2864304D02E0
:10319400031CE92888319227983128002C08F00074
:1031A4008031E827983127006208F4006308F500AD
:1031B4006408F6006508F700883179239831803176
:1031C4007B26983170082800AD007108AE0080306D
:1031D4002B004E06F00080302A0051067002031DB9
:1031E400F62850082B004D020130031C0030F0007B
:1031F400700827006105F50080306006F300803018
:103204002B004E067302031D0A294D0827005F0296
:103214002700013003180030F3005F082B004D0233
:10322400F100270060082B004E3BF2008030490675
:10323400F000803072067002031D222971084802D2
:10324400013003180030F00070087305F40080307A
:103254004E06F3008030270060067302031D3529F3
:103264005F082B004D022B00013003180030F300DF
:103274004D0827005F02F1002B004E082700603B39
:10328400F20080302B004906F00080307206700294
:10329400031D4E2971084802013003180030F00064
:1032A4007308F00570087404F10027006008033AFD
:1032B400031D5E29E7305F060130031D0030F00076
:1032C4007108F0047508F00503196A290130EF004C
:1032D40020008D186F297614702976100D19742921
:1032E40003147529031076187B2903187B2976109B
:1032F4007C29761420000D188129031482290310D7
:103304007618882903188829761089297614761C5A
:1033140095299031E020983128003508013A031DA1
:103324009529B501942B28002F082B00CF002800E5
:1033340030082B00D0004D08D1004E08D200903147
:103344001321983120008D18A9297614AA29761002
:103354000D19AE290314AF2903107618B5290318E3
:10336400B5297610B629761420000D18BB2903144C
:10337400BC2903107618C2290318C2297610C32960
:103384007614761CCF299031E02098312800350836
:10339400013A031DCF29B501942B280064002908A4
:1033A400013A031D942B2A006D08043A0130031DD1
:1033B4000030F1006D08053A0130031D0030F000C3
:1033C4007108F0040319B82A02302C00A40010304C
:1033D400A5002030A6000430A7000830A8008031E2
:1033E400C02498310330FB000830FC007730FD0026
:1033F400FD0BFA29FC0BFA29FB0BFA2902302C00ED
:10340400A4001030A500E630A6000330A700083061
:10341400A8008031C02498310B30FB002630FC001A
:103424005D30FD00FD0B142AFC0B142AFB0B142A3F
:1034340000000000640002302C00A4001030A5003D
:10344400C430A6000430A7000830A8008031C0248E
:1034540098310730FB001730FC006A30FD00FD0B8B
:10346400312AFC0B312AFB0B312A000064000230A4
:103474002C00A4001030A5002930A6000530A700B8
:103484000830A8008031C02498310B30FB0026306E
:10349400FC005D30FD00FD0B4D2AFC0B4D2AFB0B9F
:1034A4004D2A00000000640002302C00A4001030FB
:1034B400A5002030A6000530A7000830A800803100
:1034C400C02498310730FB001730FC006A30FD003F
:1034D400FD0B6A2AFC0B6A2AFB0B6A2A00006400B3
:1034E40002302C00A4001030A500BB30A60004302C
:1034F400A7000830A8008031C02498310B30FB00AD
:103504002630FC005D30FD00FD0B862AFC0B862A6C
:10351400FB0B862A00000000640002302C00A4008B
:103524001030A5005D30A6000430A7000830A800C4
:103534008031C02498310330FB000830FC00773020
:10354400FD00FD0BA32AFC0BA32AFB0BA32A0230CC
:103554002C00A4001030A5005430A6000430A700AD
:103564000830A8008031C0249831862B2A006D08C9
:10357400003A0319862B01302C00A400A501663003
:10358400A6000430A7000830A8008031C024983178
:103594000330FB000830FC007730FD00FD0BD02A1F
:1035A400FC0BD02AFB0BD02A01302C00A400A5016F
:1035B400A930A6000430A7000830A8008031C02438
:1035C40098310B30FB002630FC005D30FD00FD0B14
:1035D400E92AFC0BE92AFB0BE92A0000000064003D
:1035E40001302C00A400A501A030A6000430A700DF
:1035F4000830A8008031C02498310730FB00173010
:10360400FC006A30FD00FD0B052BFC0B052BFB0BAE
:10361400052B0000640001302C00A400A501B23089
:10362400A6000430A7000830A8008031C0249831D7
:103634000B30FB002630FC005D30FD00FD0B202B21
:10364400FC0B202BFB0B202B00000000640001303E
:103654002C00A400A5014B30A6000430A7000830BC
:10366400A8008031C02498310730FB001730FC00DB
:103674006A30FD00FD0B3C2BFC0B3C2BFB0B3C2B65
:103684000000640001302C00A400A501E130A60074
:103694000430A7000830A8008031C02498310B30D2
:1036A400FB002630FC005D30FD00FD0B572BFC0BAE
:1036B400572BFB0B572B00000000640001302C003B
:1036C400A400A501D830A6000430A7000830A80043
:1036D4008031C02498310330FB000830FC0077307F
:1036E400FD00FD0B732BFC0B732BFB0B732B0130B9
:1036F4002C00A400A501CD30A6000430A70008309A
:10370400A8008031C0249831640010302900D6000C
:103714002730D7002B004D08CF004E08D000903141
:06372400002098310800AE
:10372A00710DF80DF90D7408F8027508031C750F70
:10373A00F902F00DF10D0F30FC00710DF80DF90DC5
:10374A007408701CAE2BF8027508031C750FF90279
:10375A00B32BF80775080318750FF907F00DF10D6B
:10376A00FC0BA22B7018BF2B7408F80775080318F6
:08377A00750FF90700000800BB
:103782001E2001302800C70001302B00C7009031F5
:10379200D1279831FF302B00C700C8010020FE302E
:1037A2002B00C700C8010020FD302B00C7000130EC
:1037B200C8000020FC302B00C700C8010020FB30ED
:1037C2002B00C700C801002088310020983120005A
:1037D200EF0122008C130C172A00DC01DD01DE014F
:1037E200DF012700DF01E0012A006D08043A013001
:1037F200031D0030F1006D08053A0130031D003051
:10380200F0007108F0040319332C02302C00A400DC
:103812001030A500C630A6000230A7000830A8006C
:103822008031C024983164000D30FB002D30FC0043
:10383200D730FD00FD0B1B2CFC0B1B2CFB0B1B2C98
:103842000000000002302C00A4001030A500293036
:10385200A6000330A7000830A8008031C0249831A8
:103862006400662C2A006D08003A0319632C0130AB
:103872002C00A400A5013B30A6000330A7000830AD
:10388200A8008031C024983164000D30FB002D3037
:10389200FC00D730FD00FD0B4C2CFC0B4C2CFB0B21
:1038A2004C2C0000000001302C00A400A501323095
:1038B200A6000330A7000830A8008031C024983148
:1038C2006400662C22000D178D1710302900D600D7
:1038D2002730D70010302600E9002730EA003A20CE
:0238E2000800DC
:1038E40090313D26983124006F08643A03198D2CD9
:1038F400EF0A80302A003D06F00080305F06700237
:10390400031D862C5E083C0203188C2C5E08BC0048
:103914005F08BD00A52C2400EF012A003C082B0001
:10392400CF002A003D082B00D0002A005C082B00A1
:10393400D1002A005D082B00D20090311321983168
:103944002A00BC01BD012A0080305F06F2008030ED
:103954003F067202031DB02C3E085E0201300318BC
:103964000030F200803029006D06F10080302A001A
:103974005F067102031DC12C5E0829006C02290038
:10398400013003180030F1008030F00080306D0603
:103994007002031DCF2C6C08003C0130031800306A
:1039A400F0007108F0057208F00403193E2D64005C
:1039B40090313D26983124006F08643A0319F52CA0
:1039C400EF0A80302A003D06F00080305F06700266
:1039D400031DEE2C5E083C020318F42C5E08BC00A8
:1039E4005F08BD000D2D2400EF012A003C082B00C8
:1039F400CF002A003D082B00D0002A005C082B00D1
:103A0400D1002A005D082B00D20090311321983197
:103A14002A00BC01BD010D302B00EB000030EC008E
:103A2400ED010530EE000130EF0088319524983126
:103A340070080319202D01302600C4002600440814
:103A4400013A0130031D00302B00C6000D30EB009D
:103A54000030EC00ED010530EE00EF0188319524D3
:103A640098312B004608F00503193D2DC1232A0087
:0A3A7400DC01DD013E2DA52C080049
:103A7E007408003A031D4C2D7508003A031D4C2D99
:103A8E00FF30F0007F30F100A42D2000FD01F90180
:103A9E00F801710870040319003471087506FA00F4
:103AAE00FA1BFD09FB01F51F612DF409F509F40A56
:103ABE000319F50AF11F682DF009F109F00A03192F
:103ACE00F10A71087504FA00FA1B7D2D95237B18F7
:103ADE00902DFD1F0034F009F109F00A0319F10AC7
:103AEE00F809F909F80A0319F90A0034F51F8C2DA3
:103AFE00F11B882D7108F9007008F800F101F00132
:103B0E00702DF101F001F00A0034F109F009FB0A01
:103B1E006D2DF80A0319F90A74087802031D702D29
:103B2E0075087902031D702DF901F801F00A0319C9
:0C3B3E00F10AF11F702D0000FF34080098
:103B4A0003302B00C5002700DB012B00CF01883191
:103B5A00B12798312B0045082800CA00722400308A
:103B6A002A005D06031DBB2D00305C06031DBE2D19
:103B7A006A2E1430F4000030F5005C08F0005D088D
:103B8A00F1003F2570082A005C072B00C30071086A
:103B9A002A005D3D2B00C4004508C2002B004208E4
:103BAA001F3C031C632E4208F00028004908F40059
:103BBA0080315D20983170082B00CF008831B12701
:103BCA009831722400302A005D06031DEE2D003064
:103BDA005C06031DF12D6A2E80305D06F0008030F0
:103BEA002B0044067002031DFD2D43082A005C02C7
:103BFA000318612E2A001430F4000030F5005C0826
:103C0A00F0005D08F1003F2570082A005C072B00D0
:103C1A00C30071082A005D3D2B00C4004208F00071
:103C2A0028004908F40080315D2098317008270087
:103C3A00DB002B0045082800CA0080302A005D06F8
:103C4A00F00080307002031D2C2E78305C020318BD
:103C5A002F2E632E2B0045084207F2007208C2007D
:103C6A0027004A08003A0130031D0030F1007208AB
:103C7A00093A0130031D0030F0007108F0050319FC
:103C8A004A2E08302B00C200602E27004A08003A4C
:103C9A000130031D0030F1002B004208113A0130B7
:103CAA00031D0030F0007108F0050319602E103072
:103CBA00C2000430C500622E632ED32D27005B0894
:0C3CCA002B00CF008831B1279831080092
:103CD60003302B00C100BD0141082300EF00033073
:103CE6002B00BE001430F4000030F5002A005C08FA
:103CF600F0005D08F1003F2570082A005C072B00E4
:103D0600BF0071082A005D3D2B00C000BC012B00DE
:103D16003C081F3C031C222F3C08F00024003308FB
:103D2600F40080315D20983170082B00CF00883177
:103D360010279831A525722400302A005D06031D40
:103D4600A62E00305C06031DA92E422F80305D068C
:103D5600F00080302B0040067002031DB52E3F0890
:103D66002A005C020318202F2A001430F4000030C9
:103D7600F5005C08F0005D08F1003F2570082A0098
:103D86005C072B00BF0071082A005D3D2B00C000B8
:103D96003C08F00024003308F40080315D2098319F
:103DA60070082800B10027005B082B00BD00410801
:103DB6002300EF0028004A082B00BE0080302A00AE
:103DC6005D06F00080307002031DEB2E78305C0239
:103DD6000318EE2E222F2B0041083C07F200720832
:103DE600BC0026006B08003A0130031D0030F100CC
:103DF6007208093A0130031D0030F0007108F00521
:103E06000319092F08302B00BC001F2F26006B0852
:103E1600003A0130031D0030F1002B003C08113A36
:103E26000130031D0030F0007108F00503191F2F43
:103E36001030BC000430C100212F222F8A2E2B0007
:103E46003D082700DB00280031082B00CF00883111
:103E56001027983127005B082B00CF008831B12747
:103E660098312B003E082800CA003430FC00F1309F
:103E7600FD00FD0B3C2FFC0B3C2F00000000080052
:103E86002B00B5013408093C0318662F0A30F400EC
:103E96003408F0009031E527983170082B00B50002
:103EA6007008B500B535B535B535B5350A30F40009
:103EB6003408F0009031E52798317808F000700852
:103EC6002B00B504682F3408B5003508F00008004B
:103ED6002B002908F000F036F036F036F0360A30BE
:103EE600F40080315D2098310F302B002905F10058
:063EF6007108F00708004E
:103EFC009F302A00B3000430B4002430B5000630E3
:0E3F0C00B600F03021009E009D011D1408003B
:103F1A002B00A9018831F527983170082A00BA00C8
:103F2A0001302B00A9008831F527983170082A0042
:103F3A00BB007008003A031DA92F21000D138D1331
:103F4A0022000D178D17AF2F21000D178D17220094
:063F5A000D138D13080099
:103F60002A003B08013C0318BC2FAE302B00EB00AD
:103F7000803176279831CD2F2A003B08013A031D66
:103F8000CD2FB201B8012C00AE018031C122983191
:0C3F90002C00AE018031C12298310800E5
:103F9C0064002100971217169711171597106400DB
:103FAC0023008C010C148C148D012200911393139B
:103FBC0078302100990020008C018D018E01403059
:103FCC0022008C008D018E01033021008C00073003
:103FDC008D008E017E271E149E14951324000D1443
:083FEC008D140D158B13080064
:1040000023006F08F00024003308F40080315D20A5
:10401000A03170082B00BC00700828003107F400A4
:1040200074082B00BE000530F20024003308F000B5
:10403000F101720803192028F035F10DFF3E1A280E
:1040400001307002F2000030713BF30080307306E3
:10405000F00080307002031D2F28740872020318CC
:104060003D280530F00033082B00BE00700803190E
:104070003C28BE35FF3E3728BE03280031082B0000
:104080003C02031849283C08280031022B00BF00DD
:104090004A28BF013F082800B1002B003F08CF008D
:1040A00088311027A03198317224A03100302A00C5
:1040B0005D06031D5D2800305C06031D6028EE28A8
:1040C0005C082B00C0002A005D082B00C100240002
:1040D00033082B003F07BD003D083E02031CE728C4
:1040E0003D08CF0088311027A03198317224A031CB
:1040F00000302A005D06031D7F2800305C06031D8A
:104100008228EE2880305D06F00080302B004106CA
:104110007002031D8E2840082A005C02031C9D28A3
:104120003430FC00F130FD00FD0B9428FC0B94288A
:104130000000000098317224A03180302A005D0612
:10414000F00080302B0041067002031DAA284008B1
:104150002A005C02031CB9283430FC00F130FD0059
:10416000FD0BB028FC0BB028000000009831722431
:10417000A03180302A005D06F00080302B0041061F
:104180007002031DC62840082A005C020318E128BB
:104190002A005C082B00C0002A005D082B00C1002B
:1041A0003D082800B10080302A005D06F000803014
:1041B0007002031DDD2878305C020318E028E72830
:1041C000E228E728240033082B00BD076C282800CC
:0E41D00031082B00CF0088311027A0310800E5
:1041DE0028004A08F0004908F40080315D20A03123
:1041EE0070082B00BC00700827005B07F4007408F1
:1041FE002B00BE000530F20028004908F000F10146
:10420E00720803190E29F035F10DFF3E0829013011
:10421E007002F2000030713BF30080307306F00044
:10422E0080307002031D1D297408720203182B2999
:10423E000530F00049082B00BE00700803192A292A
:10424E00BE35FF3E2529BE0327005B082B003C022E
:10425E00031837293C0827005B022B00BF003829C2
:10426E00BF013F082700DB002B003F08CF0088313D
:10427E00B127A03198317224A03100302A005D069A
:10428E00031D4B2900305C06031D4E29DC295C08FA
:10429E002B00C0002A005D082B00C1002800490831
:1042AE002B003F07BD003D083E02031CD5293D08EB
:1042BE00CF008831B127A03198317224A03100305F
:1042CE002A005D06031D6D2900305C06031D702952
:1042DE00DC2980305D06F00080302B004106700234
:1042EE00031D7C2940082A005C02031C8B293430F4
:1042FE00FC00F130FD00FD0B8229FC0B8229000031
:10430E00000098317224A03180302A005D06F00042
:10431E0080302B0041067002031D982940082A00A8
:10432E005C02031CA7293430FC00F130FD00FD0BAC
:10433E009E29FC0B9E290000000098317224A031AA
:10434E0080302A005D06F00080302B00410670029E
:10435E00031DB42940082A005C020318CF292A0045
:10436E005C082B00C0002A005D082B00C1003D0830
:10437E002700DB0080302A005D06F00080307002DE
:10438E00031DCB2978305C020318CE29D529D029FC
:10439E00D529280049082B00BD075A2927005B089C
:0C43AE002B00CF008831B127A03108009F
:1043BA002A005C082B00B6002A005D082B00B70013
:1043CA0098316B26A03100302A005D06031DEF29C3
:1043DA0000305C06031DF52998311E20A031572BA9
:1043EA0098317224A03180302A005D06F0008030B6
:1043FA007002031D022A78305C020318052A572B23
:10440A00002000302A005D06031D0D2A00305C06DC
:10441A00031D132A98311E20A031572B983172247C
:10442A00A03180302A005D06F00080307002031D42
:10443A00202A78305C020318232A572BEF200030F9
:10444A002A005D06031D2B2A00305C06031D312A53
:10445A0098311E20A031572B98317224A031803018
:10446A002A005D06F00080307002031D3E2A783073
:10447A005C020318412A572B80305D06F100803018
:10448A007102031D4A2AC8305C0201300318003049
:10449A00F10080305D06F00080302B003706700294
:1044AA00031D5A2A36082A005C022A000130031822
:1044BA000030F00070087105F3005C082B0036022A
:1044CA00F1002A005D082B00373BF2008030F00033
:1044DA00803072067002031D742A7108643C013030
:1044EA0003180030F0007308F00503197D2A572BD2
:1044FA002A005C082B00B6002A005D082B00B700D2
:10450A00280031082B00B800B90127005B082B00EE
:10451A00BA00BB0128004708013A031D962AC701C1
:10452A00982A0130C70098311E20A0312800470878
:10453A002B00C7009031D127A0310230FB00043094
:10454A00FC00BA30FD00FD0BA82AFC0BA82AFB0BC5
:10455A00A82A000098317224A03180302A005D0612
:10456A00F00080307002031DBC2A78305C02031808
:10457A00BF2A572B98316B26A03100302A005D06DE
:10458A00031DC92A00305C06031DCF2A98311E205C
:10459A00A031572B98317224A03180302A005D0651
:1045AA00F00080307002031DDC2A78305C020318A8
:1045BA00DF2A572B002000302A005D06031DE72A58
:1045CA0000305C06031DED2A98311E20A031572BBE
:1045DA0098317224A03180302A005D06F0008030C4
:1045EA007002031DFA2A78305C020318FD2A572B41
:1045FA00EF2000302A005D06031D052B00305C0603
:10460A00031D0B2B98311E20A031572B9831722491
:10461A00A03180302A005D06F00080307002031D50
:10462A00182B78305C0203181B2B572B80302B0079
:10463A003706F00080302A005D067002031D282B21
:10464A005C082B0036020318562B28004708013A4B
:10465A00031D312BC701332B0130C70047082B003C
:10466A00C7009031D127A0312B0038082800B100AB
:10467A002B003A082700DB002B003808CF008831CE
:10468A001027A03127005B082B00CF008831B12703
:10469A00A0312B0036082A00DC002B0037082A003C
:0646AA00DD0064000800C1
:1046B00064002A006D08043A0130031D0030F10047
:1046C0006D08053A0130031D0030F0007108F00458
:1046D0000319112C24005008003A031DC32B2C0091
:1046E000A4010830A5004630A6000230A70009301A
:1046F000A8008031C024A03102302C00A40010306A
:10470000A5003D30A6000230A7000830A800803187
:10471000C024A03104302C00A4001030A500343097
:10472000A6000230A7000830A8008031C024A031C4
:1047300006302C00A4001630A5005830A60000302A
:10474000A7000730A8008031C024A03164001130D8
:10475000FB003C30FC00CB30FD00FD0BAD2BFC0B17
:10476000AD2BFB0BAD2B64000B30FB002630FC00A7
:104770005D30FD00FD0BBA2BFC0BBA2BFB0BBA2BEB
:104780000000000064000430FB000C30FC003330FB
:10479000FD00FD0BC92BFC0BC92BFB0BC92B00002B
:1047A000000028003208013A031DE42B2C00A4016C
:1047B0001030A5004F30A6000030A7000830A80038
:1047C0008031C024A031F12B2C00A4011030A500B1
:1047D0004630A6000030A7000830A8008031C02471
:1047E000A03102302C00A4001030A5006030A600DB
:1047F0000030A7000830A8008031C024A031270075
:1048000061080319102C2C00A4017030A500693038
:10481000A6000030A7000130A8008031C024A031DC
:10482000AA2C2A006D08003A0319AA2C240050086B
:10483000003A031D532C2C00A401A501B130A600A1
:104840000030A7001030A8008031C024A031013012
:104850002C00A400A501A030A6000030A700103055
:10486000A8008031C024A03164000D30FB002D3041
:10487000FC00D730FD00FD0B3B2CFC0B3B2CFB0B55
:104880003B2C0000000064000B30FB002630FC00D5
:104890005D30FD00FD0B4A2CFC0B4A2CFB0B4A2C17
:1048A0000000000064000430FB000C30FC003330DA
:1048B000FD00FD0B592CFC0B592CFB0B592C000057
:1048C00000002C00A4010830A5004430A6000030F0
:1048D000A7000130A8008031C024A0312800320890
:1048E000013A031D802C2C00A401A5013430A60040
:1048F0000030A7000830A8008031C024A0318C2CE3
:104900002C00A401A5012B30A6000030A700083020
:10491000A8008031C024A03101302C00A400A501E2
:104920002230A6000030A7000830A8008031C02443
:10493000A031270061080319AA2C2C00A40108301B
:10494000A5003D30A6000030A7000130A80080314E
:0E495000C024A031640088310020A03108008E
:10495E0064002400EF012A00BC01BD012600C40141
:10496E0098317224A03180302A005D06F00080302C
:10497E007002031DC42C6E305C020318C72C9D2DD3
:10498E0098311E20A03124005908003A031DD22C64
:10499E0088310020A0310230FB000430FC00BA3018
:1049AE00FD00FD0BD82CFC0BD82CFB0BD82C0000DB
:1049BE0098317224A0312A005C082900EA002A00EE
:1049CE005D082900EB0080302A005D06F000803083
:1049DE007002031DF42C6E305C020318F72C9D2D13
:1049EE008030F100803041067102031D002D400819
:1049FE006E3C013003180030F10080304106F000AB
:104A0E0080305D067002031D0E2D5C0840020130E1
:104A1E0003180030F0007108F0050319172D9D2DB5
:104A2E00DD2100302A005D06031D1F2D00305C06BF
:104A3E00031D252D98311E20A0319D2D80302A007A
:104A4E005D06F00080307002031D2F2D78305C0261
:104A5E000318322D9D2D25006E08053A0130031DD9
:104A6E000030F1006F08053A0130031D0030F000F0
:104A7E007108F0050319442D9D2D6F08053C031890
:104A8E00502D240033082300EF0001302400B30022
:104A9E00002080302A005D06F00080307002031D79
:104AAE005A2D78305C0203185D2D9D2D25006E0861
:104ABE00053C0318682D28004908CA000130C900BA
:104ACE00EF2025006F08053A031D712D01302400DB
:104ADE00B300822D25006F08063A031D7A2D023091
:104AEE002400B300822D25006F08073A031D822D86
:104AFE0004302400B30025006E08053A031D8B2DEB
:104B0E0001302800C9009C2D25006E08063A031DB1
:104B1E00942D02302800C9009C2D25006E08073AFE
:0E4B2E00031D9C2D04302800C90064000800FF
:104B3C0064002A006D08043A0130031D0030F100B6
:104B4C006D08053A0130031D0030F0007108F004C7
:104B5C000319BF2D02302C00A4004030A500D43026
:104B6C00A6000230A7000430A8008031C024A03178
:104B7C00D62D2A006D08003A0319D32D01302C00D4
:104B8C00A4000430A500CF30A6000230A7000430EA
:104B9C00A8008031C024A031D62D22000D178D170E
:104BAC00AF242A006D08003A031DFF2D8030F00061
:104BBC0080305D067002031DE52D5C08963C031CDD
:104BCC00EB2D22000D138D17FE2D8030F000803060
:104BDC002A005D067002031DF52D5C08FA3C031CCF
:104BEC00FB2D20000D138D13FE2D20000D178D13A2
:104BFC00142E20006F08003A0130031D0030F10024
:104C0C0024005908003A0130031D0030F0007108EF
:104C1C00F0040319142E88310020A031FF302B0032
:104C2C00C70027005B082B00C80098310020A0317A
:104C3C00FE302B00C700280031082B00C80098312B
:104C4C000020A031FD302B00C700280047082B00A6
:104C5C00C80098310020A031FC302B00C70029007F
:104C6C006B08F0000030EB1BFF30F10070082B00DC
:104C7C00C80098310020A031FB302B00C700003059
:104C8C00F4000130F50029006A08F0006B08F1000F
:104C9C0098313F25A0317808F0007908F1007008B0
:104CAC002B00C80098310020A03110302900D6000C
:104CBC002730D70010302600E9002730EA00983161
:104CCC003A20A0312A005C082700DF002A005D088A
:0E4CDC002700E00022008C130C176400080073
:104CEA0007302B00A9008831F527A03170082A0067
:104CFA00B70008302B00A9008831F527A0317008C9
:104D0A002A00B9003B08013C03188F2EA8317825E8
:104D1A00A031022F2A003B08013A031D022F01305D
:104D2A00B200B80103302C00AE008031C122A0319C
:104D3A001A30FC00F830FD00FD0BA12EFC0BA12E51
:104D4A00000003302C00AE008031C122A0310630B1
:104D5A00FC003030FD00FD0BB02EFC0BB02E000025
:104D6A0003302C00AE008031C122A03102302C0069
:104D7A00AE008031C122A03102302C00AE00803159
:104D8A00C122A03108302C00AE008031C122A031EE
:104D9A002C00AE018031C122A03108302C00AE00B7
:104DAA008031C122A0312C00AE018031C122A03154
:104DBA0001302C00AE008031C122A0311A30FC0033
:104DCA00F830FD00FD0BE72EFC0BE72E00002C004F
:104DDA00AE018031C122A03106302C00AE008031F4
:104DEA00C122A0312C00AE018031C122A0310C3089
:0C4DFA002C00AE008031C122A031080066
:1050000001302B00A9000030AA00640088319227EB
:10501000A8312A006D08043A0130031D0030F10068
:105020006D08053A0130031D0030F0007108F004EE
:10503000031960282C00A4010130A500AB30A600A4
:105040000130A7000A30A8008031C024A831023006
:105050002C00A4000130A500A030A6000130A7005C
:105060000A30A8008031C024A83104302C00A400EC
:105070000130A5006530A6000130A7000A30A80065
:105080008031C024A83106302C00A4000130A500D6
:10509000B630A6000130A7000A30A8008031C02435
:1050A000A83164000530FB000F30FC00F130FD003A
:1050B000FD0B5828FC0B5828FB0B582864008C2843
:1050C0002A006D08003A03198C282C00A401A501C0
:1050D000DD30A6000130A7001130A8008031C024C7
:1050E000A83101302C00A400A501CB30A60001306E
:1050F000A7001130A8008031C024A8316400053019
:10510000FB000F30FC00F130FD00FD0B8528FC0B8F
:105110008528FB0B852864008030F00080302B0050
:105120002A067002031D96282908003C0318E92C62
:10513000640000302A06031D9F2801302906031D44
:1051400075290A30F4000030F5002A005008F000FC
:105150005108F10098313F25A83170082C00A400B7
:105160007108A500AB30A6000530A70080314525A9
:10517000A8312A006D08043A0130031D0030F10007
:105180006D08053A0130031D0030F0007108F0048D
:105190000319F4282C00A4011030A500C130A6008A
:1051A0000130A7000930A8008031C024A831640074
:1051B00003302C00A4000630A500AB30A60005305B
:1051C000A7000630A8008031C024A8316400033055
:1051D000FB000830FC007730FD00FD0BED28FC0BD8
:1051E000ED28FB0BED2821292A006D08003A031950
:1051F00021292C00A4010130A5005B30A60001305C
:10520000A7000930A8008031C024A83101302C004B
:10521000A4000130A500AB30A6000530A700063081
:10522000A8008031C024A83164000330FB0008309E
:10523000FC007730FD00FD0B1B29FC0B1B29FB0B31
:105240001B290D302B00EB000030EC000230ED008C
:105250003230EE00EF0188319524A831700803192F
:105260004B29640080302A005106F0008030700223
:10527000031D3C29BE305002031842290A30D007D2
:105280000030D13D9C30FC00D730FD00FD0B46299D
:10529000FC0B462964000D302B00EB000030EC00C5
:1052A0000130ED003230EE00EF0188319524A83155
:1052B00070080319752964008030F00080302A00DE
:1052C00051067002031D662950086E3C03186C29B4
:1052D0000A30D0020030D13B9C30FC00D730FD00BA
:1052E000FD0B7029FC0B7029640000302B002A068E
:1052F000031D7C2902302906031D532A0A30F400BD
:105300000030F50029006C08F0006D08F1009831BC
:105310003F25A83170082C00A4007108A500AB300F
:10532000A6000530A70080314525A8312A006D0868
:10533000043A0130031D0030F1006D08053A0130D8
:10534000031D0030F0007108F0040319D1292C006E
:10535000A4011030A5003A30A6000130A7000730A4
:10536000A8008031C024A831640003302C00A400C0
:105370000630A500AB30A6000530A7000630A80017
:105380008031C024A83164000330FB000830FC00E9
:105390007730FD00FD0BCA29FC0BCA29FB0BCA297B
:1053A000FE292A006D08003A0319FE292C00A401E9
:1053B0000130A5003230A6000130A7000730A80058
:1053C0008031C024A83101302C00A4000130A50098
:1053D000AB30A6000530A7000630A8008031C024FD
:1053E000A83164000330FB000830FC007730FD007A
:1053F000FD0BF829FC0BF829FB0BF8290D302B00CD
:10540000EB000030EC000230ED003230EE00EF0136
:1054100088319524A83170080319292A6400803046
:1054200029006D06F0008030033A7002031D1A2A2D
:1054300084306C020318202A6430EC070030ED3D04
:105440009C30FC00D730FD00FD0B242AFC0B242AE5
:1054500064000D302B00EB000030EC000130ED005B
:105460003230EE00EF0188319524A831700803191D
:10547000532A64008030F000803029006D067002ED
:10548000031D442A6C08003C03184A2A6430EC02CD
:105490000030ED3B9C30FC00D730FD00FD0B4E2A68
:1054A000FC0B4E2A640000302B002A06031D5A2AEA
:1054B00005302906031D1A2B28002C082C00A400F7
:1054C000A501AB30A6000530A70080314525A831E5
:1054D0002A006D08043A0130031D0030F1006D0808
:1054E000053A0130031D0030F0007108F004031983
:1054F000A32A2C00A4011030A5004230A6000130E0
:10550000A7000730A8008031C024A8316400033010
:105510002C00A4000630A500AB30A6000530A70083
:105520000730A8008031C024A83164000330FB009C
:105530000830FC007730FD00FD0B9C2AFC0B9C2AF8
:10554000FB0B9C2AD02A2A006D08003A0319D02AA6
:105550002C00A4010130A5005330A6000130A700A3
:105560000730A8008031C024A83101302C00A400ED
:105570000130A500AB30A6000530A7000630A8001A
:105580008031C024A83164000330FB000830FC00E7
:105590007730FD00FD0BCA2AFC0BCA2AFB0BCA2A76
:1055A0000D302B00EB000030EC000230ED0032300B
:1055B000EE00EF0188319524A83170080319F12A13
:1055C00064005A3028002C020318E82A0A30AC077D
:1055D0009C30FC00D730FD00FD0BEC2AFC0BEC2AC4
:1055E00064000D302B00EB000030EC000130ED00CA
:1055F0003230EE00EF0188319524A831700803198C
:105600001A2B640028002C08003C0318112B0A30C8
:105610002C02F1007108AC000A3071020318112B42
:10562000AC019C30FC00D730FD00FD0B152BFC0BB2
:10563000152B640000302B002A06031D212B04309B
:105640002906031DD62B28006F082C00A400A501F5
:10565000AB30A6000530A70080314525A8312A00CF
:105660006D08043A0130031D0030F1006D08053A61
:105670000130031D0030F0007108F0040319692B9C
:105680002C00A4011030A5004A30A6000130A7006C
:105690000830A8008031C024A83103302C00A400B9
:1056A0000630A500AB30A6000530A7000730A800E3
:1056B0008031C024A83164000330FB000830FC00B6
:1056C0007730FD00FD0B622BFC0B622BFB0B622B7A
:1056D000962B2A006D08003A0319962B2C00A40182
:1056E0000130A5002030A6000230A7000830A80035
:1056F0008031C024A83101302C00A4000130A50065
:10570000AB30A6000530A7000630A8008031C024C9
:10571000A83164000330FB000830FC007730FD0046
:10572000FD0B902BFC0B902BFB0B902B0D302B00CB
:10573000EB000030EC000230ED003230EE00EF0103
:1057400088319524A83170080319B62B64006330A2
:1057500028006F020318AD2BEF0A9C30FC00D730F5
:10576000FD00FD0BB12BFC0BB12B64000D302B00A9
:10577000EB000030EC000130ED003230EE00EF01C4
:1057800088319524A83170080319D62B64002800AD
:105790006F08003C0318CD2BEF039C30FC00D73082
:1057A000FD00FD0BD12BFC0BD12B640000302B0036
:1057B0002A06031DDD2B03302906031DAF2C2A000A
:1057C0006D08043A0130031D0030F1006D08053A00
:1057D0000130031D0030F0007108F00403192D2C76
:1057E0002C00A4011030A5005A30A6000230A700FA
:1057F0000830A8008031C024A83124005908013A9B
:10580000031D112C03302C00A4001030A5005130D2
:10581000A6000230A7000730A8008031C024A831BC
:105820001F2C03302C00A4001030A5006330A6000C
:105830000230A7000730A8008031C024A83103300F
:10584000FB000830FC007730FD00FD0B252CFC0B25
:10585000252CFB0B252C64006E2C2A006D08003AC9
:1058600003196E2C2C00A4010130A500B030A60055
:105870000230A7000830A8008031C024A8312400DD
:105880005908013A031D532C01302C00A4000130AB
:10589000A500A830A6000230A7000730A80080317C
:1058A000C024A831612C01302C00A4000130A500D7
:1058B000A030A6000230A7000730A8008031C02425
:1058C000A83164000330FB000830FC007730FD0095
:1058D000FD0B682CFC0B682CFB0B682C0D302B008F
:1058E000EB000030EC000230ED003230EE00EF0152
:1058F00088319524A831700803198F2C6400240086
:105900005908003A031D862C0130D9009C30FC0058
:10591000D730FD00FD0B8A2CFC0B8A2C64000D3067
:105920002B00EB000030EC000130ED003230EE00D7
:10593000EF0188319524A83170080319AF2C640059
:1059400024005908013A031DA62CD9019C30FC0003
:10595000D730FD00FD0BAA2CFC0BAA2C64000D30E7
:105960002B00EB000030EC00ED013230EE00EF01D7
:1059700088319524A83170080319E82C0730FB0002
:105980001730FC006A30FD00FD0BC42CFC0BC42C4E
:10599000FB0BC42C0000640020000D1CE32C2B002A
:1059A000A90A0319AA0A8030F00080302A06700282
:1059B000031DDC2C2908053C0318E22C0130A9004A
:1059C0000030AA00E72C2B006400A901AA016400A2
:1059D0008C280A30F4000030F5002A005008F0004E
:1059E0005108F10098313F25A83170082B00B40010
:1059F00098314327A8317008C8000430C700983197
:105A00000020A8310A30F4000030F50029006C08AD
:105A1000F0006D08F10098313F25A83170082B0087
:105A2000B40098314327A8317008C8000630C70079
:105A300098310020A83128002C082B00B4009831A0
:105A40004327A8317008C8003230C70098310020C1
:105A5000A83128006F082B00B40098314327A831E3
:105A60007008C8003430C70098310020A8312400E5
:105A700059082B00B40098314327A8317008C8009A
:105A80003330C70098310020A83128002C08F000DE
:105A90008031E827A83127006208F4006308F50088
:105AA0006408F6006508F70088317923A831803151
:105AB0007B26A83170082800AD007108AE00640094
:105AC00001302400D000A0315823A8310B30FB0056
:105AD0002630FC005D30FD00FD0B6C2DFC0B6C2DA9
:105AE000FB0B6C2D0000000088310020A83108005D
:105AF00080310320A8312A003A082C00BD008031F3
:105B00002220A8312C00BD0180312220A831AE30E6
:105B10002C00BD0080312220A8312A003B08023A27
:105B20000130031D0030F1003B08033A0130031D32
:105B30000030F0007108F0040319542ED5302C0009
:105B4000BD0080312220A83180302C00BD00803182
:105B50002220A831A8302C00BD0080312220A8319D
:105B60003F302C00BD0080312220A831D3302C00E2
:105B7000BD0080312220A8312A003B08023A031DD3
:105B8000C82D37082C00BD0080312220A831D02D2F
:105B90002A0037081F3E2C00BD0080312220A8318A
:105BA00040302C00BD0080312220A8318D302C00E7
:105BB000BD0080312220A83114302C00BD0080317E
:105BC0002220A83181302C00BD0080312220A83154
:105BD000B4302C00BD0080312220A831D9302C00F7
:105BE000BD0080312220A83122302C00BD00803140
:105BF0002220A83120302C00BD0080312220A83185
:105C000002302C00BD0080312220A83121302C0030
:105C1000BD0080312220A8312C00BD01803122201E
:105C2000A8317F302C00BD0080312220A8312E30D9
:105C30002C00BD0080312220A8312A003B08023A06
:105C4000031D2F2EA0302C00BD0080312220A83152
:105C5000C0302C00BD0080312220A8313B2EA13065
:105C60002C00BD0080312220A831C8302C00BD009E
