:04000000A031DC2E21
:100006002A003B08003A0319212821000D17063063
:10001600FD00FD0B0C2800008D170630FD00FD0BC2
:10002600122800008D130630FD00FD0B1828000075
:0E0036000D130630FD00FD0B1E280000080013
:100044002A003B08003A03195C28F1017108073CB7
:10005400031C49282C00BD1B322821008D13342891
:1000640021008D170630FD00FD0B362800000D170A
:100074000630FD00FD0B3C2800000D130630FD008A
:10008400FD0B422800002C00BD35F10A2828210070
:100094008D170630FD00FD0B4D2800000D170630AE
:1000A400FD00FD0B532800000D130630FD00FD0B71
:0600B400592800000800BD
:1000BA0020007008F100F0010830FC007108F40C0F
:1000CA0003186B28FC0B6428F10100340310702814
:1000DA00F40C0318F107F10CF00CFC0B6D28080066
:1000EA002A003B08003A03198D2821008D13063097
:1000FA00FD00FD0B7E2800000D170630FD00FD0BEC
:10010A00842800008D170630FD00FD0B8A280000A8
:02011A000800DB
:10011C002A0039082C003907BC0003202A003A08B1
:10012C002C00BD0022202C00BD0122202C00380800
:10013C00B03EBD0022202C003C080F3C031CAA281A
:10014C003C08BA00BB01BB283C08F200F236F23680
:10015C00F236F2367208BB007208F000F035F0355A
:10016C00F035F03570083C02BA003A08BD00222088
:10017C002C003B08103EBD00222003202A003A0828
:10018C002C00BD00222040302C00BD002220080095
:10019C002000F801F9011030FC00710DF80DF90D7B
:1001AC007408F8027508031C750FF9020318E5288A
:1001BC007408F80775080318750FF9070310F00D8C
:0801CC00F10DFC0BD328080023
:1001D40003202A003A082C00BD00222040302C00C5
:1001E400BD0022202C002F08B8002E08B9008E2054
:1001F4002C00B301320833020318B0293308300746
:1002040084000030313D85000008003A031D0C29AC
:10021400B50115293308300784000030313D8500CD
:1002240020300002B500B4013408043C031CA829A2
:100234003508F0000530F4005D202C003408F00788
:100244000030F13D433070078400BB30713D8500C0
:100254000008B6002F08023A013003190030F100FB
:100264002F08043A013003190030F0007008F1053A
:100274002F08063A013003190030F0007108F00528
:1002840003196D29B6194829B7134929B717B6199F
:100294004D2937134E29371736195229B7125329C6
:1002A400B71636195729371258293716B6185C2944
:1002B400B7115D29B715B6186129371162293715A9
:1002C40036186629B7106729B71436186B29371002
:1002D4006C2937148D2936197129B7137229B71768
:1002E40036197629371377293717B6187B29B712A9
:1002F4007C29B716B6188029371281293716361883
:100304008529B7118629B71536188A2937118B29FB
:100314003715B71037103708BD0022202A003B08D4
:10032400043A0130031D0030F1003B08053A013066
:10033400031D0030F0007108F0040319A5292C00F6
:100344003708BD0022202C00B40A1629BD01222042
:100354002C00BD0122202C00B30AFC282F0AB8006F
:100364002E08B9008E202C00B30132083302031882
:10037400732A3308300784000030313D85000008BB
:10038400003A031DC729B501D0293308300784007A
:100394000030313D850020300002B500B40134083E
:1003A400043C031C6B2A3508F0000530F4005D2082
:1003B4002C003408F0070030F13D4330700784000E
:1003C400BB30713D85000008B6002F08023A0130A9
:1003D40003190030F1002F08043A013003190030EA
:1003E400F0007008F1052F08063A013003190030B7
:1003F400F0007108F0050319282AB61B032AB71365
:10040400042AB717B61B082A3713092A3717361BCD
:100414000D2AB7120E2AB716361B122A3712132AC0
:100424003716B61A172AB711182AB715B61A1C2A7E
:1004340037111D2A3715361A212AB710222AB71464
:10044400361A262A3710272A3714502A361B2C2A04
:10045400B7132D2AB717361B312A3713322A371709
:10046400B61A362AB712372AB716B61A3B2A3712E3
:100474003C2A3716361A402AB711412AB715361ABC
:10048400452A3711462A3715B6194A2AB7104B2A76
:10049400B714B6194F2A3710502A37143708BD003D
:1004A40022202A003B08043A0130031D0030F100E9
:1004B4003B08053A0130031D0030F0007108F004D8
:1004C4000319682A2C003708BD0022202C00B40A26
:1004D400D129BD0122202C00BD0122202C00B30A09
:0604E400B7297520080095
:1004EA002C00B201053032020318852A320830077F
:1004FA0086000030313D870020308100B20A772A19
:10050A003208300786000030313D87008101B2038E
:10051A0032083007B3000030313DB4000A30F4002D
:10052A00F5012E08F0002F08F100CE207808F0001F
:10053A007908F1003030F0072C00330886003408BF
:10054A008700700881000A30F400F5012E08F000D7
:10055A002F08F100CE2070082C00AE007108AF0001
:10056A0000307106031DBB2A00307006031DBE2A27
:08057A00C02AB2038D2A08001B
:100582002C00AF012900EF010130EE002C002E08F3
:10059200AF00AF35AF35AF35AF352A00320803199A
:1005A200D52A08302C00AF0729006E080319DC2A6F
:1005B20004302C00AF0729006F080319E32A023028
:1005C2002C00AF072A0038080319E92A2C00AF0AC9
:1005D20003202A003A082C00BD0022202C002F08FC
:1005E200BD00222075200630FC003030FD00FD0BDE
:1005F200F82AFC0BF82A000004302C00AF0203207A
:100602002A003A082C00BD0022202C002F08BD0031
:10061200222075200630FC003030FD00FD0B0F2B30
:08062200FC0B0F2B0000080087
:10062A00FB14FB1F1F2BFF30F300F200F100F00058
:08063A00FA0DF20CFF3008007C
:0E064200F201F101F001F801F30100300800AF
:100650007B15FB1F322B0130F300F201F101F00199
:08066000FA0DF20CFF30080056
:08066800FA1FF2130030080034
:0A0670001D30FD00FD0B3A2B0800C1
:10067A0020002230FC00F801F901FA01FB01FC0319
:10068A000319722B0310FB0CFA0CF90CF80CF30C7F
:10069A00F20CF10CF00C031C442BFC030319642B21
:1006AA007408F80775080318750FF9077608031810
:1006BA00760FFA0777080318770FFB07482B740899
:1006CA00F80775080318750FF90776080318760FE7
:0C06DA00FA0777080318770FFB070800E9
:1006E6007408F8027508031C750FF9027608031CD6
:1006F600760FFA027708031C770FFB02F30D07301B
:10070600FC00730DF80DF90DFA0DFB0D7408731C42
:100716009A2BF8027508031C750FF9027608031C5C
:10072600760FFA027708031C770FFB02A72BF80750
:1007360075080318750FF90776080318760FFA0778
:1007460077080318770FFB07F30DFC0B842B720D4C
:10075600F80DF90DFA0DFB0D7408731CC02BF80289
:100766007508031C750FF9027608031C760FFA024A
:100776007708031C770FFB02CD2BF80775080318C3
:10078600750FF90776080318760FFA077708031826
:10079600770FFB07F20D0730FC00720DF80DF90D0F
:1007A600FA0DFB0D7408721CE62BF8027508031C83
:1007B600750FF9027608031C760FFA027708031CF8
:1007C600770FFB02F32BF80775080318750FF90767
:1007D60076080318760FFA0777080318770FFB07D2
:1007E600F20DFC0BD02B710DF80DF90DFA0DFB0D6A
:1007F6007408721C0C2CF8027508031C750FF9029C
:100806007608031C760FFA027708031C770FFB02A3
:10081600192CF80775080318750FF90776080318D9
:10082600760FFA0777080318770FFB07F10D0730E5
:10083600FC00710DF80DF90DFA0DFB0D7408711C15
:10084600322CF8027508031C750FF9027608031C92
:10085600760FFA027708031C770FFB023F2CF80786
:1008660075080318750FF90776080318760FFA0747
:1008760077080318770FFB07F10DFC0B1C2C700D86
:10088600F80DF90DFA0DFB0D7408711C582CF802C1
:100896007508031C750FF9027608031C760FFA0219
:1008A6007708031C770FFB02652CF80775080318F9
:1008B600750FF90776080318760FFA0777080318F5
:1008C600770FFB07F00D0730FC00700DF80DF90DE2
:1008D600FA0DFB0D7408701C7E2CF8027508031CBB
:1008E600750FF9027608031C760FFA027708031CC7
:1008F600770FFB028B2CF80775080318750FF9079D
:1009060076080318760FFA0777080318770FFB07A0
:10091600F00DFC0B682C70189E2C7408F8077508EF
:100926000318750FF90776080318760FFA07770884
:080936000318770FFB0708000E
:10093E00833021009D052C002408F000F035F035A1
:10094E00700821009D0438239D149D1CAF2CAC2CE7
:10095E001C08F100F0011B08F0040030F10408003F
:10096E000330FC009530FD00FD0BBB2CFC0BBB2CAB
:02097E0008006F
:100980002A003B08043A0130031D0030F1003B0807
:10099000053A0130031D0030F0007108F00403191E
:1009A000DE2C2C002508AE002408AF002608B0007D
:1009B0002708B1002808B200EA20382D2A003B0899
:1009C000023A0130031D0030F1003B08033A0130C8
:1009D000031D0030F0007108F0040319042D0730E6
:1009E000F0002C002508F4005D20043070072C0076
:1009F000AE002408AF00AF352608B0002708B100CC
:100A00002808B200EA20382D2A00B8012C0024085A
:100A1000F000F035F0357008083EAE00C1222C0021
:100A20002508AE00C12201302A00B8002C00A9011F
:100A3000280829020318382D2908260784000030C9
:100A4000273D85000008F1007108AE00AE36AE36D5
:100A5000AE36AE36C1222C002908260784000030AD
:100A6000273D85000008AE00C1222C00A90A182DE0
:020A700008007C
:100A7200FB09FA09F909F809F80A0319F90A03192D
:080A8200FA0A0319FB0A08003F
:100A8A002C00AA01AB012408AC002508AD00803077
:100A9A002506F00080307002031D552D0030240217
:100AAA000318632D0130AA000030AB002408003C73
:100ABA00AC002508031C013EAD01AD022C08AE00B6
:100ACA002D08AF002608B0002708B10075220630AD
:100ADA00A8000030A9002908003C031D762D28082B
:100AEA00003C0318912D2808260786002908273D6F
:100AFA00870001302802F0000030293BF10070081D
:100B0A00260784007108273D85000008810001300E
:100B1A00A8020030A93B702D260886002708870006
:100B2A00203081002A082B040319B72DA801A90136
:100B3A002808260784002908273D85000008203A4E
:100B4A00031DAB2DA80A0319A90A9D2D0130A8027D
:100B5A000030A93B2808260786002908273D870078
:060B6A002D30810008009F
:060B7000FB15FF30080038
:100B76007C18F12DFC18C22D7C19102EBB2DA1015D
:100B86007208031DE22D7108F2007008F100780862
:100B9600F000F801A1157208031DE22D7108F2009C
:100BA6007008F100F001A11121167208031DE22D53
:100BB6007108F200F101A11572080319042E21082B
:100BC600F302031D031C082E0310F21BF12DF80D72
:100BD600F00DF10DF20DF30BE82D082E7B1B701CAA
:100BE6000C2EF81F0C2EF00A0319F10A0319F20A4B
:100BF600031D0C2EF20CF10CF00CF30A0319102E47
:100C06000C2E0130FC002123132E0230FC00282379
:100C1600132E0430FC003423132E0830FC00152359
:040C260000000800C2
:100C2A002000FB01FA01F9018030F800F10CF00C08
:100C3A00031C282E7408F90775080318750FFA079C
:100C4A000318FB0A0310F01F302E7408FA07750800
:100C5A000318750FFB07FB0CFA0CF90CF80C031CB4
:100C6A001B2E7B08F3007A08F2007908F100780855
:040C7A00F00008007E
:100C7E00A1017208031D542E7108F2007008F100D4
:100C8E00F001A1157208031D542E7108F200F10136
:100C9E00A111211672080319622E2108F302031DF9
:100CAE00031C662E0310F21B6A2EF00DF10DF20DD1
:100CBE00F30B5A2E662E0130FC0021236D2E0230CE
:0E0CCE00FC0028236D2E0430FC0034230800A7
:100CDC007B14FB1F792EF201FA1FFF30F200F1009A
:0A0CEC00F000FA0DF20CFF300800D2
:100CF6002000FB0173080319B72E7208FA00F217D9
:100D06008E30F302F31FBA2EF309F30A083073028A
:100D1600031C9D2EF300F10D7208F100F20108305C
:100D26007302031C9D2EF300F10DF1017308031DE0
:100D36000310A52E73080319A52E0310F20CF10C4F
:100D4600F30BA02E7B1B711CAF2E031CAF2EF10ADA
:100D56000319F20AF21BC62EFA1FC92EF209F1096F
:100D6600F10A0319F20AC92EF201F101C92E7B1408
:100D7600FB1FCC2EF201FA1FCC2EFF30F200F10041
:100D8600FA0DF20CCC2E0130FC00CE2E0030FC0009
:100D9600CE2EFF30FC00FC080319D22E6E267108F9
:080DA600F0007208F1000800E2
:100DAE00200072087606A100F801F9017308770297
:100DBE00031CF92E7708FD007308F7007D08F30079
:100DCE007608FD007208F6007D08F2007508FD0039
:100DDE007108F5007D08F1007408FD007008F4003C
:100DEE007D08F00077080319722F7208FA00F217C7
:100DFE00F61777087302F70003192C2F08307702C5
:100E0E00031C222FF7007408F9007508F400760809
:100E1E00F500F60108307702031C222FF700740844
:100E2E00F9007508F400F50108307702031C222F33
:100E3E007A08F200722F770803192C2F0310F60C84
:100E4E00F50CF40CF90CF70B252FA11F392FF9090E
:100E5E00F409F509F609F90A0319F40A0319F50A52
:100E6E000319F60A7908F80774080318740FF007C7
:100E7E0075080318750FF10776080318760FF20739
:100E8E00A11B522F031C622FF20CF10CF00CF80C6C
:100E9E00F30F622F6E2F0318662FF809F009F10970
:100EAE00F209F80A0319F00A0319F10A0319F20AF2
:100EBE008030FA066A2F0130FC00BB25742F0230F9
:100ECE00FC00BB25742F0430FC003F26742F083025
:0E0EDE00FC001523742F0030FC0000000800FB
:100EEC0003202A003A082C00BD00222080302C0060
:100EFC00BD0022202B006B082C00BD002220752089
:020F0C000800DB
:100F0E00A0302C00A0000F30A100A201A301A03040
:100F1E00F0000F30F1000030F2000030F3002B0033
:100F2E006B08F4006C08F500F601F7013D2370081C
:100F3E002C00A0007108A1007208A2007308A30083
:100F4E0000307302031DB52F00307202031DB52F42
:100F5E0002307102031DB52FB23070020318B82F84
:100F6E00E72FB230A0020230A13B0030A23BA33BE0
:100F7E000530F00070080319CA2FA336A20CA10C7D
:100F8E00A00CFF3EC22F2008F0002108F10022081D
:100F9E00F2002308F3000130A0020030A13BA23B77
:100FAE00A33B70087104720473040319E72F000049
:100FBE000000000000000000000000000000CA2F2A
:020FCE00080019
:100FD00020007008F800FB01FC019E30F300FA01CC
:0E0FE000F201F101F0010230FC00BB25080017
:100FEE0012001E00F003031DF72FF103031DF72F50
:020FFE000800E9
:1010000064002A00D401D5012800311C0C282A00D4
:101010005208D4075308D53D2800B11C14282A00D3
:101020005A08D4075B08D53D2800311D1C282A002A
:101030005808D4075908D53D2800B11D24282A0096
:101040005608D4075708D53D2800311E2C282A0001
:101050006008D4076108D53D2800B11E34282A0055
:101060006B08D4076C08D53D2800311F3C282A00A6
:101070006908D4076A08D53D2A0054082C00A4004A
:101080002A0055082C00A5006230A6000530A700F4
:101090008031452588312A006408203A03195428F4
:1010A00064082B00A00057282B003030A0002E3001
:1010B000A1002A006508203A0319622865082B0060
:1010C000A20065282B003030A2002A006608203AD2
:1010D00003196E2866082B00A30071282B003030FE
:1010E000A3002A006D08043A0130031D0030F1000E
:1010F0006D08053A0130031D0030F0007108F0045E
:101100000319BB2828004708013A031D8B28043027
:101110002B00EB008E282B000630EB006B082C0018
:10112000A4001030A5003C30A6000430A700023017
:10113000A8008031C02488312B006B082C00A4004B
:101140005830A5003930A6000430A7000230A800AE
:101150008031C02488312B006B082C00A40028307B
:10116000A500A030A6000530A7000430A8008031FB
:10117000C024883140292A006D08023A0130031D3D
:101180000030F1006D08033A0130031D0030F0001B
:101190007108F0040319042928004708013A031DC7
:1011A000D4282B00EB01D7282B000130EB006B0873
:1011B0002C00A4000930A5003630A6000430A7009A
:1011C0000230A8008031C02488312B006B082C002D
:1011D000A4000F30A5004430A6000430A700023060
:1011E000A8008031C02488312B006B082C00A4009B
:1011F0000B30A500A030A6000530A7000430A800E1
:101200008031C024883140292A006D08013A031D2D
:10121000402928004708013A031D11292B00EB0142
:1012200014292B000130EB006B082C00A4000930BE
:10123000A5004130A6000430A7000230A80080318C
:10124000C02488312B006B082C00A4000F30A500AF
:101250003F30A6000430A7000130A8008031C02430
:1012600088312B006B082C00A4000B30A500A030A7
:10127000A6000530A7000430A8008031C0248831C2
:1012800064002A00D401D50127005B1C4C292A00E8
:101290004808D4074908D53D2700DB1C54292A00FB
:1012A0004608D4074708D53D27005B1D5C292A0066
:1012B0004E08D4074F08D53D2700DB1D64292A00BE
:1012C0004C08D4074D08D53D27005B1E6C292A0029
:1012D0004A08D4074B08D53D2700DB1E74292A0095
:1012E0004408D4074508D53D27005B1F7C292A0008
:1012F0004208D4074308D53D2A0054082C00A40016
:101300002A0055082C00A5006230A6000530A70071
:101310008031452588312A0064082B00A0002A006E
:1013200065082B00A1002A0066082B00A2002A00F5
:1013300067082B00A3002A006D08043A0130031D42
:101340000030F1006D08053A0130031D0030F00057
:101350007108F0040319E52928004708013A031D24
:10136000B52906302B00EB00B8292B000430EB0028
:101370006B082C00A4001030A500CF30A60003306D
:10138000A7000230A8008031C02488312B006B08F0
:101390002C00A4005830A500D830A6000330A700C8
:1013A0000230A8008031C02488312B006B082C004B
:1013B000A4002830A500A030A6000530A700043006
:1013C000A8008031C02488316A2A2A006D08023AB8
:1013D0000130031D0030F1006D08033A0130031D98
:1013E0000030F0007108F00403192E2A2800470885
:1013F000013A031DFF2901302B00EB00012A2B00CD
:10140000EB016B082C00A4000930A500D530A60024
:101410000330A7000230A8008031C02488312B009F
:101420006B082C00A4000F30A500D230A6000330BA
:10143000A7000230A8008031C02488312B006B083F
:101440002C00A4000B30A500A030A6000530A7009A
:101450000430A8008031C02488316A2A2A006D082F
:10146000013A031D6A2A28004708013A031D3C2A55
:1014700001302B00EB003E2A2B00EB016B082C0007
:10148000A4000930A500DC30A6000330A70002301C
:10149000A8008031C02488312B006B082C00A400E8
:1014A0000F30A5002A30A6000430A7000130A800A4
:1014B0008031C02488312B006B082C00A4000B3035
:1014C000A500A030A6000530A7000430A800803198
:0814D000C0248831640008000B
:1014D80020007008F8007108F000F101F201F30132
:1014E800FB01FC019630F300FA01F01F812AF8098C
:1014F800F009F80A0319F00AFA177008F1007808D9
:0E150800F000F801F20180313F268831080022
:101516007408003A031DA42A7508003A031DA42A7C
:101526007608003A031DA42A7708003A031DA42A68
:10153600FF30F000FF30F1007F30F200FF30F300A3
:10154600462B200077080319322B73080319372B13
:10155600720876068039FA00F217F617A1017208AA
:10156600F8007108FC007008FD007408FD0275089B
:10157600031C750FFC027608031C760FF802F801AF
:10158600FC01FD01031CCE2A0310F20CF10CF00C39
:10159600F80C0130A1007708F302031CD82A7E302C
:1015A6002107F30703183C2BDD2A7E302107F307BA
:1015B600031C412B1830FA07FD0DFC0DF80DF00D3C
:1015C600F10DF20DA10D7408F0027508031C750FDC
:1015D600F1027608031C760FF202760DA104211C97
:1015E600F62A7D14012B7408F00775080318750F89
:1015F600F10776080318760AF2077D10FA031F3002
:101606007A05031DDF2A7B1B7D1C282B0310F00D9A
:10161600F10DF20DA10D7408F0027508031C750F8B
:10162600F1027608031C760FF202760D21040139C9
:10163600FD070318FC0A0319F80A031D282BF80CEA
:10164600FC0CFD0CF30A03193C2BFA1FF81378085F
:10165600F2007C08F1007D08F0000030452B0130D7
:101666008031B8258831452B0230803121238831DD
:10167600452B0430803115238831452B08308031C5
:08168600282388310000080050
:10168E002000FB017308031D770803199D2B7208B8
:10169E007606FA007708F3077E30031C5A2BF30206
:1016AE000318A22B5D2BF302031CA72B7208F80064
:1016BE007108FC007008FD00F817F6170310F20110
:1016CE00F101F0011830A1007D1C772B7408F00792
:1016DE0075080318750FF10776080318760FF207D1
:1016EE00F20CF10CF00CF80CFC0CFD0C0310A10B21
:1016FE006B2BF21B872BF80DF00DF10DF20DF30392
:10170E007B1B701C992BF81F992BF00A0319F10AF9
:10171E000319F20A031D992BF20CF10CF00CF30ACB
:10172E000319A22BFA1FF2130030AB2B01308031BC
:10173E0021238831AB2B0230803115238831AB2B1E
:0C174E000430803128238831000008009E
:10175A007408003A031DC62B7508003A031DC62BF0
:10176A007608003A031DC62B7708003A031DC62BDC
:10177A00FF30F000FF30F100FF30F2007F30F3005D
:10178A00622C2000FC01F71BFC0AFD01FB01FA0197
:10179A00F901F801730872047104700403195B2CCF
:1017AA0073087706A000A01BFD09F71FE72BF409B1
:1017BA00F509F609F709F40A0319F50A0319F60AED
:1017CA000319F70AF31FF42BF009F109F209F309D7
:1017DA00F00A0319F10A0319F20A0319F30A730842
:1017EA007704A000A01B172C803173238831FC1BBF
:1017FA00342CFD1F5B2CF009F109F209F309F00AF8
:10180A000319F10A0319F20A0319F30AF809F90983
:10181A00FA09FB09F80A0319F90A0319FA0A03195A
:10182A00FB0A5B2CF71F2E2CF31B282C7308FB00DA
:10183A007208FA007108F9007008F800F301F20161
:10184A00F101F001FE2BF301F201F101F001F00ABE
:10185A000034F309F209F109F009FC17F92BF80A27
:10186A000319F90A0319FA0A0319FB0A7408780218
:10187A00031DFE2B75087902031DFE2B76087A02DA
:10188A00031DFE2B77087B02031DFE2BFB01FA01C9
:10189A00F901F801F00A0319F10A0319F20A031906
:1018AA00F30AF31FFE2BA0012016FF34A0017C1CB3
:0C18BA00612C803139258831003E080087
:1018C6002C00A1012B006D08F1000130F000710819
:1018D6000319702CF035FF3E6B2C70082C00A0000D
:1018E6002B006B0884006C08850070080005F10069
:1018F60071080130031D0030F0006F08F00603196F
:10190600A52C6E08003C0318902C8031B724883132
:101916008031B7248831EE03842C6B0884006C0870
:1019260085002C0020080005F10071080130031D18
:101936000030F0002B006F08F0060319A52CFF30CD
:0C1946002C00A1002C002108F00008007B
:10195200813022009700171BAF2CAC2C01302C00D9
:10196200A40080319F24883170082B00EB0071089D
:10197200EC008030033AF200803071067202031DDF
:10198200C42C7008E83C031CCB2C6B08F0006C08DC
:10199200F100172D823022009700171BD12CCE2C7C
:1019A20001302C00A40080319F24883170082B0064
:1019B200EB007108EC008030033AF20080307106CF
:1019C2007202031DE62C7008E83C031CEF2C6B0826
:1019D200F0006C08F100F035F10D172D8330220074
:1019E2009700171BF52CF22C01302C00A40080313B
:1019F2009F24883170082B00EB007108EC007108FD
:101A0200043A031D062D00307006031D0C2D013013
:101A12002800A9000E2D2800A9012B006B08F00058
:0E1A22006C08F100F035F10DF035F10D080003
:101A300020007008F8007108F0007208F1007308C7
:101A4000F200F301FB01FC019E30F300FA01F21FEA
:101A5000352DF809F009F109F209F80A0319F00A1D
:101A60000319F10A0319F20AFA170230FC00803157
:061A7000BB2588310800CF
:101A76002000FA017308031D7A147708031DFA146F
:101A86007A080319862D033A0319512D7A184E2D1B
:101A9600F61F842D822DF21F822D842D7208803927
:101AA600FA00F21376088039F6137A0603195F2DC9
:101AB6007A080319822D842D770873020319662D7F
:101AC600031C7A2D7E2D7608720203196D2D031CD8
:101AD6007A2D7E2D750871020319742D031C7A2D3B
:101AE6007E2D740870020319862D03187E2DFA08C0
:101AF6000319842D822DFA080319822D842D0314CF
:0E1B060008000310080003140315080008006F
:101B1400813022009700171B902D8D2D2C00A401DD
:101B240080319F24883170082B00EB007108EC0091
:101B34008030033AF200803071067202031DA42D36
:101B44007008E83C031CAB2D6B08F0006C08F10036
:101B5400EA2D823022009700171BB12DAE2D2C00E8
:101B6400A40180319F24883170082B00EB00710898
:101B7400EC008030033AF200803071067202031DDB
:101B8400C52D7008E83C031CCE2D6B08F0006C08D2
:101B9400F100F035F10DEA2D833022009700171B78
:101BA400D42DD12D2C00A40180319F2488317008BC
:101BB4002B00EB007108EC007008F2007108F300D0
:101BC400F235F30DF235F30D7208F0007308F100ED
:021BD400080007
:101BD6002B006B08F0006C08F1000330F4000030B5
:101BE600F50080311526883170082B00EB0071084E
:101BF600EC008030F200803071067202031D052E63
:101C06007008503C031C0A2EF001F101DD2E8030D5
:101C1600F00080306C067002031D132E6B08AB3C7F
:101C2600031C1A2EF430EB070030EC3DD92E803021
:101C3600013AF00080306C067002031D242E6B08FA
:101C4600483C031C2B2EFE30EB070030EC3DD92E12
:101C56008030023AF00080306C067002031D352E8B
:101C66006B08463C031C3C2E1830EB070130EC3D5C
:101C7600D92E8030033AF00080306C067002031DC6
:101C8600462E6B08343C031C4D2E2930EB070130E1
:101C9600EC3DD92E8030043AF00080306C0670029C
:101CA600031D572E6B084C3C031C5E2E3630EB078B
:101CB6000130EC3DD92E8030083AF00080306C06B9
:101CC6007002031D682E6B08853C031C6F2EAE3018
:101CD600EB070130EC3DD92E80300C3AF000803015
:101CE6006C067002031D792E6B08FA3C031C802ECD
:101CF600E430EB070130EC3DD92E8030123AF0008B
:101D060080306C067002031D8A2E6B080F3C031C84
:101D1600912E1230EB070230EC3DD92E8030163A68
:101D2600F00080306C067002031D9B2E6B08E63CAB
:101D3600031CA22E8830EB070230EC3DD92E8030F2
:101D46001B3AF00080306C067002031DAC2E6B0847
:101D5600EA3C031CB32EE730EB070230EC3DD92EEC
:101D66008030213AF00080306C067002031DBD2ED3
:101D76006B08363C031CC42E2030EB070330EC3DC9
:101D8600D92E8030293AF00080306C067002031D8F
:101D9600CE2E6B08043C031CD52E4830EB070330CF
:101DA600EC3DD92E5C30EB070330EC3D6B08F000C0
:061DB6006C08F1000800BA
:101DBC0028004808003A031D1C2F2B004F18E92E51
:101DCC0022008D11EB2E22008D152B00CF18F12E39
:101DDC0022000C11F32E22000C152B004F19F92E9A
:101DEC0022000D12FB2E22000D162B00CF19012FF5
:101DFC0022008C11032F22008C152B004F1A092F57
:101E0C0022008D120B2F22008D162B00CF1A112FB2
:101E1C0022008C12132F22008C162B004F1B192F13
:101E2C0022000C121B2F22000C16542F2B004F18C3
:101E3C00222F22008D15242F22008D112B00CF185C
:101E4C002A2F22000C152C2F22000C112B004F19BD
:101E5C00322F22000D16342F22000D122B00CF1919
:101E6C003A2F22008C153C2F22008C112B004F1A7C
:101E7C00422F22008D16442F22008D122B00CF1AD8
:101E8C004A2F22008C164C2F22008C122B004F1B39
:101E9C00522F22000C16542F22000C122A006E080E
:101EAC002B00EB002A006F082B00EC0080318727F9
:041EBC008831080061
:101EC0002A003B08013C03186C2FAF302B00EB00BD
:101ED0008031762788317E2F2A003B08013A031D86
:101EE0007E2F0130B200B8012C00AE018031C1223A
:0E1EF00088312C00AE018031C12288310800FB
:101EFE002B004F18852F22008E13872F22008E174E
:101F0E002B00CF188D2F22008E118F2F22008E15B1
:101F1E002B004F19952F22000E13972F22000E170C
:101F2E002B00CF199D2F22000E119F2F22000E1570
:101F3E002B004F1AA52F22008E12A72F22008E16CD
:101F4E002B00CF1AAD2F22008E10AF2F22008E1431
:101F5E002B004F1BB52F22000E12B72F22000E168C
:101F6E002A006E082B00EB002A006F082B00EC00F5
:081F7E0080318727883108003B
:101F86000D302B00EB000030EC00ED011930EE00B7
:101F9600EF01632470082B00CF000D30EB000030FA
:101FA600EC000130ED001930EE00EF0163247008FB
:101FB6002B00CF040D30EB000030EC000230ED00BA
:101FC6001930EE00EF0163242B004F08F0040319CB
:0A1FD600EF2F01302800B5000800CD
:101FE0002000F8010830FC00700DF80D7408F802AC
:101FF0000318FC2FF8070310F00DFC0BF42F08005A
:1020000064002B00500829005706031D0A285608B3
:102010002B004F060319DE282B004F082900D6009D
:102020002B0050082900D70000302B005006031D5C
:102030001B2801304F06031D5D282A006D08043A55
:102040000130031D0030F1006D08053A0130031D19
:102050000030F0007108F00403193D2802302C0014
:10206000A4004030A5002530A6000230A7000430AF
:10207000A8008031C024903159282A006D08003A08
:102080000319512801302C00A4000430A500203091
:10209000A6000230A7000430A8008031C02490318F
:1020A00059282A006D08003A031D592822000D17EF
:1020B0008D172900D601D701DE282B004F082900F3
:1020C000D6002B0050082900D7002B004F082C0009
:1020D000A4002B0050082C00A5006230A60005309B
:1020E000A7008031452590312A0065082B00A0000B
:1020F0002E30A1002A0066082B00A2002A006708E3
:102100002B00A3002A006D08043A0130031D0030A3
:10211000F1006D08053A0130031D0030F000710830
:10212000F0040319A22802302C00A4004030A500BE
:10213000A030A6000530A7000430A8008031C024DC
:102140009031DE282A006D08003A0319B6280130C4
:102150002C00A4000430A500A030A6000530A70084
:102160000430A8008031C0249031DE282A006D0898
:10217000003A031DDE288030F00080302B0050062E
:102180007002031DC5284F08963C031CCB28220073
:102190000D138D17DE288030F00080302B005006A4
:1021A0007002031DD5284F08FA3C031CDB282000D1
:1021B0000D138D13DE2820000D178D136400080009
:1021C00000302B00D7000030D8004830D9008530CF
:1021D000DA00640021005C08003A0130031D003081
:1021E000F1006E08013A0130031D0030F000700864
:1021F000F10580302B005206F00080307002031D84
:102200000329643051020130031C0030F0007108D2
:10221000F0050319C92920006F08003A031DC529DC
:102220002A006D08043A0130031D0030F1006D08EA
:10223000053A0130031D0030F0007108F004031965
:10224000522928003208013A031D352904302C0098
:10225000A4001030A500A930A6000230A700083065
:10226000A8008031C0249031432904302C00A40000
:102270001030A5006230A6000330A7000830A80087
:102280008031C024903106302C00A4001030A5000D
:102290005930A6000330A7000830A8008031C024C0
:1022A0009031C5292A006D08023A0130031D003023
:1022B000F1006D08033A0130031D0030F000710891
:1022C000F0040319922928003208013A031D7629E7
:1022D0002C00A4010930A5005030A6000330A7004F
:1022E0000830A8008031C024903183292C00A4013B
:1022F0000930A500A030A6000330A7000830A800D0
:102300008031C024903101302C00A4000930A50098
:10231000B930A6000330A7000830A8008031C024DF
:102320009031C5292A006D08013A031DC5292800EE
:102330003208013A031DAA292C00A4010930A50086
:10234000B130A6000330A7000730A8008031C024B8
:102350009031B7292C00A4010930A500A930A600AE
:102360000330A7000730A8008031C024903101302D
:102370002C00A4000930A5004830A6000330A700B7
:102380000730A8008031C024903101302000EF00D8
:10239000D32920006F08013A031DD129883100207C
:1023A00090312000EF0164002B0050082600450604
:1023B000031DDD2944082B004F060319072E2B00AF
:1023C0004F082600C4002B0050082600C500280036
:1023D0003208003A031D482A80302B005006F000D6
:1023E00080307002031DF62964304F02031C1D2A41
:1023F00005304F07F0000030503DF1007008CF006D
:102400007108D00070082C00A4007108A50062308B
:10241000A6000530A7008031452590312A006408C8
:102420002B00A0002A0065082B00A1002A006608E6
:102430002B00A2005730A300472A4F082C00A4000D
:102440002B0050082C00A5006230A6000530A70024
:102450008031452590312A006608203A0319342A34
:1024600066082B00A000372A2B003030A0002E3049
:10247000A1002A006708203A0319422A67082B00A6
:10248000A200452A2B003030A2005730A300902A2A
:102490002B0080305006F0008030033A7002031D9C
:1024A000532AE7304F020318722A4F082C00A40069
:1024B0002B0050082C00A5006230A6000530A700B4
:1024C0008031452590312A0065082B00A0002A00A4
:1024D00066082B00A1002A0067082B00A2005730D5
:1024E000A300902A4F082C00A4002B0050082C00B9
:1024F000A5006230A6000530A70080314525903147
:102500002A0064082B00A0002A0065082B00A10007
:102510002A0066082B00A2002A0067082B00A200F0
:102520002A006D08043A0130031D0030F1006D08E7
:10253000053A0130031D0030F0007108F004031962
:10254000AF2A2C00A4014030A500A030A600053021
:10255000A7000430A8008031C0249031C12A2A008D
:102560006D08003A0319C12A2C00A4010430A5000B
:10257000A030A6000530A7000430A8008031C02498
:102580009031640020006F08013A031D072E2800D7
:102590003108003A0130031D0030F10027005B08CC
:1025A000003A0130031D0030F0007108F0050319F6
:1025B000E12A2B0051082900EA002B0052082900CB
:1025C000EB0029006A08F0006B08F10088316C22EA
:1025D000903170082B00E3007108E4007208E500F8
:1025E0007308E6000030F4000030F5004830F600D3
:1025F0008530F7006308F0006408F1006508F20018
:102600006608F30088318B22903170082B00DF00C0
:102610007108E0007208E1007308E2006308F4004A
:102620006408F5006508F6006608F7000030F00061
:102630000030F1004830F2008530F30088318B2201
:1026400090312B005F08F4006008F5006108F60087
:102650006208F7008031D726903170082B00DF0028
:102660007108E0007208E1007308E20028006F08BA
:10267000F0008031E82790312B005F08F4006008FB
:10268000F5006108F6006208F700883147239031B1
:102690000030F4000030F5002030F6008230F70002
:1026A00088318B2290311F30F4008530F5006B307B
:1026B000F6007B30F7008831472390310030F4007A
:1026C0000030F5000030F6007F30F7008031D7266B
:1026D00090317008F4007108F5007208F600730874
:1026E000F7000030F0000030F1000030F2007F30E1
:1026F000F30088318B22903170082B00E7007108BD
:10270000E8007208E9007308EA006708D700680863
:10271000D8006908D9006A08DA005108F0005208A8
:10272000F10088316C22903170082B00E3007108B1
:10273000E4007208E5007308E6000030F4000030A1
:10274000F5004830F6008530F7006308F0006408B3
:10275000F1006508F2006608F30088318B229031A1
:102760000030F4000030F5000030F6008030F70053
:102770008031D726903170082B00DF007108E0000F
:102780007208E1007308E2006308F4006408F500D1
:102790006508F6006608F7000030F0000030F10030
:1027A0004830F2008530F30088318B2290312B00C5
:1027B0005F08F4006008F5006108F6006208F700A1
:1027C0008031D72690317008F4007108F500720846
:1027D000F6007308F7000030F0000030F100003020
:1027E000F2008130F30088318B22903170082B0089
:1027F000DB007108DC007208DD007308DE000030C9
:10280000F4000030F5000030F6007F30F700670874
:10281000F0006808F1006908F2006A08F3008831E6
:102820003B2590310130031C0030F0007008031983
:10283000222C00302B00D7000030D8000030D90007
:102840007F30DA002B000030F4000030F50000305B
:10285000F6007F30F7005B08F0005C08F1005D08CF
:10286000F2005E08F30088313B2590310130031CF3
:102870000030F00070080319462C00302B00DB00FC
:102880000030DC000030DD007F30DE002B004F0820
:10289000F0005008F10088316C2290312B0057086D
:1028A000F4005808F5005908F6005A08F700883176
:1028B000472390312B005B08F4005C08F5005D08AD
:1028C000F6005E08F70088314723903180317B267F
:1028D000903170082B00D3007108D4005708F00025
:1028E0005808F1005908F2005A08F3005B08F40098
:1028F0005C08F5005D08F6005E08F70088314723A4
:1029000090310030F4000030F5004830F60085309A
:10291000F70088314723903180317B269031700851
:102920002B00D5007108D60080307106F20080308F
:102930007202031D9D2C64307002031CA32C6330B3
:10294000D5000030D60028003208003A031D042DBF
:1029500080302B005406F00080307002031DB22C32
:1029600064305302031CD92C05305307F0000030AB
:10297000543DF1007008D3007108D40070082C0099
:10298000A4007108A5006230A6000530A7008031C0
:10299000452590312A0064082B00A0002A00650814
:1029A0002B00A1002A0066082B00A2005730A300CC
:1029B000032D53082C00A4002B0054082C00A50064
:1029C0006230A6000530A7008031452590312A00ED
:1029D0006608203A0319F02C66082B00A000F32C9F
:1029E0002B003030A0002E30A1002A006708203ACA
:1029F0000319FE2C67082B00A200012D2B0030309C
:102A0000A2005730A3004C2D2B0080305406F0005C
:102A10008030033A7002031D0F2DE7305302031874
:102A20002E2D53082C00A4002B0054082C00A500C8
:102A30006230A6000530A7008031452590312A007C
:102A400065082B00A0002A0066082B00A1002A00C0
:102A500067082B00A2005730A3004C2D53082C0010
:102A6000A4002B0054082C00A5006230A6000530FD
:102A7000A7008031452590312A0064082B00A00072
:102A80002A0065082B00A1002A0066082B00A2007E
:102A90002A0067082B00A2002A006D08043A0130C2
:102AA000031D0030F1006D08053A0130031D0030B0
:102AB000F0007108F00403196C2D04302C00A40000
:102AC0004030A500A030A6000530A7000430A800C3
:102AD0008031C02490319D2D2A006D08023A0130CA
:102AE000031D0030F1006D08033A0130031D003072
:102AF000F0007108F00403198B2D2C00A4010D3097
:102B0000A500A030A6000530A7000430A800803141
:102B1000C02490319D2D2A006D08013A031D9D2D82
:102B20002C00A4010C30A500A030A6000530A700A1
:102B30000430A8008031C02490312B0055082C00AF
:102B4000A4002B0056082C00A5006230A60005301A
:102B5000A7008031452590312A0066082B00A0008F
:102B60002A0067082B00A1002A006D08043A0130F2
:102B7000031D0030F1006D08053A0130031D0030DF
:102B8000F0007108F0040319D42D06302C00A400C5
:102B90004C30A500A030A6000530A7000230A800E8
:102BA0008031C0249031072E2A006D08023A01308E
:102BB000031D0030F1006D08033A0130031D0030A1
:102BC000F0007108F0040319F42D01302C00A4006A
:102BD0000E30A500A030A6000530A7000230A800E6
:102BE0008031C0249031072E2A006D08013A031D60
:102BF000072E01302C00A4000D30A500A030A60047
:102C00000530A7000230A8008031C0249031640054
:022C10000800BA
:102C120064008831A92490317008CF007108D00077
:102C22000030D01BFF30D100D20088318A2590318C
:102C32007008D3007108D4000030D41BFF30D500D7
:102C4200D60028003408013A031D3C2E2B004F0801
:102C5200EB005008EC008831EB25903188316C2272
:102C6200903170082B00D7007108D8007208D90083
:102C72007308DA00512E2B004F08F0005008F100C3
:102C82005108F2005208F30088311825903170087B
:102C92002B00D7007108D8007208D9007308DA0037
:102CA20080305606F000803052067002031D632EFB
:102CB20051085502031D632E50085402031D632E52
:102CC2004F085302031C6C2EE730CF000330D000B4
:102CD200D101D201B62E53084F07F0005408503DDF
:102CE200F1005508513DF2005608523DF3006430A0
:102CF200F400F501F601F70180313D2390312B00FC
:102D02004F08F4005008F5005108F6005208F70089
:102D12005308F4025408F53B5508F63B5608F73BB6
:102D22008831AD23903170082B00CF007108D0009C
:102D32007208D1007308D2008030F400803073062C
:102D42007402031DAE2E7208003C031DAE2E7108E4
:102D5200033C031DAE2E7008E73C0318B62EE73085
:102D6200CF000330D000D101D20128003308F00097
:102D72008031E82790312B005708F4005808F500FD
:102D82005908F6005A08F70088314723903100307D
:102D9200F4000030F5007A30F6008830F700883110
:102DA2008B22903170082B00D7007108D80072086E
:102DB200D9007308DA00F430F400FD30F500343045
:102DC200F6007F30F70088318B22903170082B009B
:102DD200D7007108D8007208D9007308DA002800F9
:102DE2003208013A031D1E2F2B005708F000580825
:102DF200F1005908F2005A08F3005708F400580885
:102E0200F5005908F6005A08F70088314723903137
:102E12000030F4000030F5004830F6008430F7004E
:102E220088318B22903170082B00D7007108D800AE
:102E32007208D9007308DA00462F2B005708F000F9
:102E42005808F1005908F2005A08F3005708F40034
:102E52005808F5005908F6005A08F7008831472348
:102E620090310030F4000030F5002030F60081305F
:102E7200F70088318B22903170082B00D70071083F
:102E8200D8007208D9007308DA005708F000580811
:102E9200F1005908F2005A08F3000030F400003043
:102EA200F5000030F6007E30F7008031D7269031F1
:102EB20070082B00D7007108D8007208D900730877
:102EC200DA0080317B26903170082A00DE0071081A
:102ED200DF0080307106F20080307202031D732F12
:102EE2000A30700203187A2F0130DC000030DD0056
:102EF2009C2F80302B005206F00080307002031DA0
:102F02008C2F00305102031D8C2F00305002031D04
:102F12008C2F64304F020318942FE7302A00DC0014
:102F22000330DD009C2F2B004F082A00DC002B0011
:082F320050082A00DD00080030
:102F3A002B004718A32F22000E10A52F22000E14D3
:102F4A002A006E082B00EB002A006F082B00EC0009
:082F5A00803187279031080047
:102F62002B0047082300910092012B004808230000
:102F720093001513951315150B08F0008B1355309C
:102F82009600AA3096009514F01BC92F8B13CA2FF6
:0C2F92008B171511951CCE2FCB2F0800BB
:102F9E002800B1012700DB012B00CF018831DE268E
:102FAE00903127005B082B00CF0088317F279031AE
:102FBE002A006E082B00EB002A006F082B00EC0095
:082FCE008031872790310800D3
:102FD6002B0029082300910092019513151315144F
:062FE6001308F0000800D2
:103000002B00CB01CC0164302A0050022B00C800F9
:1030100000302A00513B2B00C9000130CD000030A8
:10302000CE002A00DE01DF01640078302B00CA00E8
:10303000C7014A0847020318762820008D18222865
:103040007614232876100D19272803142828031036
:1030500076182E2803182E2876102F287614200094
:103060000D18342803143528031076183B2803184C
:103070003B2876103C287614761C48288831C327D4
:10308000983128003508013A031D4828B5015A2B0C
:1030900090310926983180302B004C06F0008030AA
:1030A0002A005F067002031D58285E082B004B02A1
:1030B00003186A282A005E082B00CB002A005F084C
:1030C0002B00CC002A005C082B00CD002A005D08F4
:1030D0002B00CE001030FC009430FD002B00FD0BC7
:1030E0006E28FC0B6E280000C70A192864004B08E4
:1030F0002800AF002B004C082800B0002B004D0822
:10310000CF004E08D00090310020983180302B0045
:103110004E06F00080307002031D902864304D028E
:10312000031CAF2888316027983128002C08F00054
:103130008031E827983127006208F4006308F50021
:103140006408F6006508F70088314723983180311C
:103150007B26983170082800AD007108AE008030E1
:103160002B004E06F00080302A0051067002031D2D
:10317000BC2850082B004D020130031C0030F00029
:10318000700827006105F50080306006F30080308C
:103190002B004E067302031DD0284D0827005F0246
:1031A0002700013003180030F3005F082B004D02A8
:1031B000F100270060082B004E3BF20080304906EA
:1031C000F000803072067002031DE8287108480282
:1031D000013003180030F00070087305F4008030EF
:1031E0004E06F3008030270060067302031DFB28A3
:1031F0005F082B004D022B00013003180030F30054
:103200004D0827005F02F1002B004E082700603BAD
:10321000F20080302B004906F00080307206700208
:10322000031D142971084802013003180030F00012
:103230007308F00570087404F10027006008033A71
:10324000031D2429E7305F060130031D0030F00024
:103250007108F0047508F005031930290130EF00FA
:1032600020008D1835297614362976100D193A2943
:1032700003143B29031076184129031841297610BD
:103280004229761420000D184729031448290310F9
:1032900076184E2903184E2976104F297614761C7D
:1032A0005B298831C327983128003508013A031D6E
:1032B0005B29B5015A2B28002F082B00CF002800CE
:1032C00030082B00D0004D08D1004E08D2009031BC
:1032D000E020983120008D186F297614702976101F
:1032E0000D19742903147529031076187B29031806
:1032F0007B2976107C29761420000D18812903146F
:1033000082290310761888290318882976108929BC
:103310007614761C95298831C32798312800350802
:10332000013A031D9529B5015A2B2800640029088C
:10333000013A031D5A2B2A006D08043A0130031D7F
:103340000030F1006D08053A0130031D0030F00037
:103350007108F00403197E2A02302C00A4001030FA
:10336000A5002030A6000430A7000830A800803156
:10337000C02498310330FB000830FC007730FD009A
:10338000FD0BC029FC0BC029FB0BC02902302C000F
:10339000A4001030A500E630A6000330A7000830D6
:1033A000A8008031C02498310B30FB002630FC008F
:1033B0005D30FD00FD0BDA29FC0BDA29FB0BDA2965
:1033C00000000000640002302C00A4001030A500B2
:1033D000C430A6000430A7000830A8008031C02403
:1033E00098310730FB001730FC006A30FD00FD0B00
:1033F000F729FC0BF729FB0BF729000064000230CA
:103400002C00A4001030A5002930A6000530A7002C
:103410000830A8008031C02498310B30FB002630E2
:10342000FC005D30FD00FD0B132AFC0B132AFB0B87
:10343000132A00000000640002302C00A4001030A9
:10344000A5002030A6000530A7000830A800803174
:10345000C02498310730FB001730FC006A30FD00B3
:10346000FD0B302AFC0B302AFB0B302A00006400D5
:1034700002302C00A4001030A500BB30A6000430A0
:10348000A7000830A8008031C02498310B30FB0021
:103490002630FC005D30FD00FD0B4C2AFC0B4C2A55
:1034A000FB0B4C2A00000000640002302C00A4003A
:1034B0001030A5005D30A6000430A7000830A80039
:1034C0008031C02498310330FB000830FC00773095
:1034D000FD00FD0B692AFC0B692AFB0B692A0230EF
:1034E0002C00A4001030A5005430A6000430A70022
:1034F0000830A8008031C02498314C2B2A006D0878
:10350000003A03194C2B01302C00A400A5016630B1
:10351000A6000430A7000830A8008031C0249831EC
:103520000330FB000830FC007730FD00FD0B962ACD
:10353000FC0B962AFB0B962A01302C00A400A50157
:10354000A930A6000430A7000830A8008031C024AC
:1035500098310B30FB002630FC005D30FD00FD0B88
:10356000AF2AFC0BAF2AFB0BAF2A0000000064005F
:1035700001302C00A400A501A030A6000430A70053
:103580000830A8008031C02498310730FB00173084
:10359000FC006A30FD00FD0BCB2AFC0BCB2AFB0B99
:1035A000CB2A0000640001302C00A400A501B23039
:1035B000A6000430A7000830A8008031C02498314C
:1035C0000B30FB002630FC005D30FD00FD0BE62AD1
:1035D000FC0BE62AFB0BE62A000000006400013029
:1035E0002C00A400A5014B30A6000430A700083031
:1035F000A8008031C02498310730FB001730FC0050
:103600006A30FD00FD0B022BFC0B022BFB0B022B87
:103610000000640001302C00A400A501E130A600E8
:103620000430A7000830A8008031C02498310B3046
:10363000FB002630FC005D30FD00FD0B1D2BFC0B5C
:103640001D2BFB0B1D2B00000000640001302C0023
:10365000A400A501D830A6000430A7000830A800B7
:103660008031C02498310330FB000830FC007730F3
:10367000FD00FD0B392BFC0B392BFB0B392B0130DB
:103680002C00A400A501CD30A6000430A70008300E
:10369000A8008031C0249831640010302900D60081
:1036A0002730D7002B004D08CF004E08D0009031B6
:0636B00000209831080023
:1036B600710DF80DF90D7408F8027508031C750FE5
:1036C600F902F00DF10D0F30FC00710DF80DF90D3A
:1036D6007408701C742BF8027508031C750FF90228
:1036E600792BF80775080318750FF907F00DF10D1A
:1036F600FC0B682B7018852B7408F80775080318DF
:08370600750FF907000008002F
:10370E009031CF27983101302800C70001302B00AF
:10371E00C70090319D279831FF302B00C700C8019C
:10372E009031B1279831FE302B00C700C80190317F
:10373E00B1279831FD302B00C7000130C800903101
:10374E00B1279831FC302B00C700C8019031B1274A
:10375E009831FB302B00C700C8019031B12798314A
:10376E008831002098312000EF0122008C130C17B5
:10377E002A00DC01DD01DE01DF012700DF01E001AF
:10378E002A006D08043A0130031D0030F1006D0867
:10379E00053A0130031D0030F0007108F0040319E2
:1037AE00052C02302C00A4001030A500BA30A60063
:1037BE000230A7000830A8008031C0249831640080
:1037CE000D30FB002D30FC00D730FD00FD0BED2B36
:1037DE00FC0BED2BFB0BED2B0000000002302C0040
:1037EE00A4001030A5002930A6000330A700083031
:1037FE00A8008031C02498316400382C2A006D084E
:10380E00003A0319352C01302C00A400A5013B30E1
:10381E00A6000330A7000830A8008031C0249831DC
:10382E0064000D30FB002D30FC00D730FD00FD0B89
:10383E001E2CFC0B1E2CFB0B1E2C0000000001305E
:10384E002C00A400A5013230A6000330A7000830DA
:10385E00A8008031C02498316400382C22000D1746
:10386E008D1710302900D6002730D70010302600D3
:0A387E00C4002730C5000020080038
:1038880090310926983126004708643A03195F2CBD
:10389800C70A80302A003D06F00080305F067002BB
:1038A800031D582C5E083C0203185E2C5E08BC0001
:1038B8005F08BD00772C2600C7012A003C082B00B2
:1038C800CF002A003D082B00D0002A005C082B00FE
:1038D800D1002A005D082B00D2009031E0209831F9
:1038E8002A00BC01BD012A0080305F06F20080304A
:1038F80041067202031D822C40085E020130031843
:103908000030F200803029006D06F10080302A0076
:103918005F067102031D932C5E0829006C022900C2
:10392800013003180030F1008030F00080306D065F
:103938007002031DA12C6C08003C013003180030F4
:10394800F0007108F0057208F0040319102D6400E6
:1039580090310926983126004708643A0319C72C84
:10396800C70A80302A003D06F00080305F067002EA
:10397800031DC02C5E083C020318C62C5E08BC0060
:103988005F08BD00DF2C2600C7012A003C082B0079
:10399800CF002A003D082B00D0002A005C082B002D
:1039A800D1002A005D082B00D2009031E020983128
:1039B8002A00BC01BD010D302B00EB000030EC00EB
:1039C800ED010530EE000130EF00883163249831B5
:1039D80070080319F22C01302600C600260046089C
:1039E800013A0130031D00302B00C6000D30EB00FA
:1039F8000030EC00ED010530EE00EF018831632462
:103A080098312B004608F00503190F2D87232A004B
:0A3A1800DC01DD01102D772C080001
:103A22007408003A031D1E2D7508003A031D1E2D51
:103A3200FF30F0007F30F100762D2000FD01F9010A
:103A4200F801710870040319003471087506FA0050
:103A5200FA1BFD09FB01F51F332DF409F509F40AE0
:103A62000319F50AF11F3A2DF009F109F00A0319B9
:103A7200F10A71087504FA00FA1B4F2D5B237B18BB
:103A8200622DFD1F0034F009F109F00A0319F10A51
:103A9200F809F909F80A0319F90A0034F51F5E2D2D
:103AA200F11B5A2D7108F9007008F800F101F001BC
:103AB200422DF101F001F00A0034F109F009FB0A8C
:103AC2003F2DF80A0319F90A74087802031D422DE2
:103AD20075087902031D422DF901F801F00A031954
:0C3AE200F10AF11F422D0000FF34080023
:103AEE0003302B00C5002700DB012B00CF018831EE
:103AFE007F2798312B0045082800CA004424003047
:103B0E002A005D06031D8D2D00305C06031D902DD1
:103B1E003C2E1430F4000030F5005C08F0005D0817
:103B2E00F100112570082A005C072B00C3007108F4
:103B3E002A005D3D2B00C4004508C2002B00420840
:103B4E001F3C031C352E4208F00028004908F400E3
:103B5E0080315D20983170082B00CF0088317F278F
:103B6E009831442400302A005D06031DC02D00301C
:103B7E005C06031DC32D3C2E80305D06F0008030A8
:103B8E002B0044067002031DCF2D43082A005C0251
:103B9E000318332E2A001430F4000030F5005C08B0
:103BAE00F0005D08F100112570082A005C072B005B
:103BBE00C30071082A005D3D2B00C4004208F000CE
:103BCE0028004908F40080315D20983170082700E4
:103BDE00DB002B0045082800CA0080302A005D0655
:103BEE00F00080307002031DFE2D78305C02031849
:103BFE00012E352E2B0045084207F2007208C20036
:103C0E0027004B08003A0130031D0030F100720806
:103C1E00093A0130031D0030F0007108F005031958
:103C2E001C2E08302B00C200322E27004B08003A03
:103C3E000130031D0030F1002B004208113A013013
:103C4E00031D0030F0007108F0050319322E1030FC
:103C5E00C2000430C500342E352EA52D27005B087A
:0C3C6E002B00CF0088317F279831080020
:103C7A0003302B00C100BD0141082100EB000330D5
:103C8A002B00BE001430F4000030F5002A005C0856
:103C9A00F0005D08F100112570082A005C072B006E
:103CAA00BF0071082A005D3D2B00C000BC012B003B
:103CBA003C081F3C031CF42E3C08F00021006C0851
:103CCA00F40080315D20983170082B00CF008831D4
:103CDA00DE2698317725442400302A005D06031D2C
:103CEA00782E00305C06031D7B2E142F80305D0673
:103CFA00F00080302B0040067002031D872E3F081B
:103D0A002A005C020318F22E2A001430F400003054
:103D1A00F5005C08F0005D08F100112570082A0022
:103D2A005C072B00BF0071082A005D3D2B00C00014
:103D3A003C08F00021006C08F40080315D209831C5
:103D4A0070082800B10027005B082B00BD0041085D
:103D5A002100EB0028004A082B00BE0080302A0010
:103D6A005D06F00080307002031DBD2E78305C02C3
:103D7A000318C02EF42E2B0041083C07F2007208EB
:103D8A00BC0027004C08003A0130031D0030F10046
:103D9A007208093A0130031D0030F0007108F0057D
:103DAA000319DB2E08302B00BC00F12E27004C082B
:103DBA00003A0130031D0030F1002B003C08113A93
:103DCA000130031D0030F0007108F0050319F12ECF
:103DDA001030BC000430C100F32EF42E5C2E2B00F0
:103DEA003D082700DB00280031082B00CF0088316E
:103DFA00DE26983127005B082B00CF0088317F2709
:103E0A0098312B003E082800CA003430FC00F130FB
:103E1A00FD00FD0B0E2FFC0B0E2F0000000008000A
:103E2A002B00B5013408093C0318382F0A30F40076
:103E3A003408F0008831F027983170082B00B5005B
:103E4A007008B500B535B535B535B5350A30F40065
:103E5A003408F0008831F02798317808F0007008AB
:103E6A002B00B5043A2F3408B5003508F0000800D5
:103E7A002B002908F000F036F036F036F0360A301A
:103E8A00F40080315D2098310F302B002905F100B4
:063E9A007108F0070800AA
:103EA0009F302A00B3000430B4002430B50006303F
:0E3EB000B600F03021009E009D011D14080098
:103EBE0007302B00A9009031EB27983170082A00AB
:103ECE00B70008302B00A9009031EB27983170080D
:103EDE002A00B9003B08013C0318792FA831782538
:103EEE009831EC2F2A003B08013A031DEC2F0130CC
:103EFE00B200B80103302C00AE008031C1229831DF
:103F0E001A30FC00F830FD00FD0B8B2FFC0B8B2FB5
:103F1E00000003302C00AE008031C12298310630F3
:103F2E00FC003030FD00FD0B9A2FFC0B9A2F000089
:103F3E0003302C00AE008031C122983102302C00AB
:103F4E00AE008031C122983102302C00AE0080319B
:103F5E00C122983108302C00AE008031C122983138
:103F6E002C00AE018031C122983108302C00AE00F9
:103F7E008031C12298312C00AE018031C12298319E
:103F8E0001302C00AE008031C12298311A30FC0075
:103F9E00F830FD00FD0BD12FFC0BD12F00002C00B3
:103FAE00AE018031C122983106302C00AE00803136
:103FBE00C12298312C00AE018031C12298310C30D3
:0C3FCE002C00AE008031C12298310800A8
:1040000021006B08F0006C08F40080315D20A031C5
:1040100070082B00BC00700828003107F4007408F9
:104020002B00BE000530F20021006C08F000F10109
:10403000720803191F28F035F10DFF3E19280130D1
:104040007002F2000030713BF30080307306F00024
:1040500080307002031D2E287408720203183C2859
:104060000530F0006C082B00BE00700803193B28D7
:10407000BE35FF3E3628BE03280031082B003C0227
:10408000031848283C08280031022B00BF004928AB
:10409000BF013F082800B1002B003F08CF00883146
:1040A000DE26A03198314424A03100302A005D067C
:1040B000031D5C2800305C06031D5F28ED285C08AA
:1040C0002B00C0002A005D082B00C10021006C08F5
:1040D0002B003F07BD003D083E02031CE6283D08BB
:1040E000CF008831DE26A03198314424A031003041
:1040F0002A005D06031D7E2800305C06031D812812
:10410000ED2880305D06F00080302B004106700203
:10411000031D8D2840082A005C02031C9C283430B3
:10412000FC00F130FD00FD0B9328FC0B93280000F0
:10413000000098314424A03180302A005D06F00050
:1041400080302B0041067002031DA92840082A0078
:104150005C02031CB8283430FC00F130FD00FD0B7C
:10416000AF28FC0BAF280000000098314424A03198
:1041700080302A005D06F00080302B00410670027E
:10418000031DC52840082A005C020318E0282A0005
:104190005C082B00C0002A005D082B00C1003D0810
:1041A0002800B10080302A005D06F00080307002E7
:1041B000031DDC2878305C020318DF28E628E1289C
:1041C000E62821006C082B00BD076B282800310869
:0C41D0002B00CF008831DE26A031080053
:1041DC0028004A08F0004908F40080315D20A03125
:1041EC0070082B00BC00700827005B07F4007408F3
:1041FC002B00BE000530F20028004908F000F10148
:10420C00720803190D29F035F10DFF3E0729013015
:10421C007002F2000030713BF30080307306F00046
:10422C0080307002031D1C297408720203182A299D
:10423C000530F00049082B00BE007008031929292D
:10424C00BE35FF3E2429BE0327005B082B003C0231
:10425C00031836293C0827005B022B00BF003729C6
:10426C00BF013F082700DB002B003F08CF0088313F
:10427C007F27A03198314424A03100302A005D06FC
:10428C00031D4A2900305C06031D4D29DB295C08FF
:10429C002B00C0002A005D082B00C1002800490833
:1042AC002B003F07BD003D083E02031CD4293D08EE
:1042BC00CF0088317F27A03198314424A0310030C1
:1042CC002A005D06031D6C2900305C06031D6F2956
:1042DC00DB2980305D06F00080302B004106700237
:1042EC00031D7B2940082A005C02031C8A293430F8
:1042FC00FC00F130FD00FD0B8129FC0B8129000035
:10430C00000098314424A03180302A005D06F00072
:10431C0080302B0041067002031D972940082A00AB
:10432C005C02031CA6293430FC00F130FD00FD0BAF
:10433C009D29FC0B9D290000000098314424A031DC
:10434C0080302A005D06F00080302B0041067002A0
:10435C00031DB32940082A005C020318CE292A0049
:10436C005C082B00C0002A005D082B00C1003D0832
:10437C002700DB0080302A005D06F00080307002E0
:10438C00031DCA2978305C020318CD29D429CF2902
:10439C00D429280049082B00BD07592927005B08A0
:0C43AC002B00CF0088317F27A0310800D3
:1043B8002A005C082B00B6002A005D082B00B70015
:1043C80098313D26A03100302A005D06031DEE29F4
:1043D80000305C06031DF4299031CF27A031562BFD
:1043E80098314424A03180302A005D06F0008030E6
:1043F8007002031D012A78305C020318042A562B28
:10440800002000302A005D06031D0C2A00305C06DF
:10441800031D122A9031CF27A031562B98314424FE
:10442800A03180302A005D06F00080307002031D44
:104438001F2A78305C020318222A562BEE200030FF
:104448002A005D06031D2A2A00305C06031D302A57
:104458009031CF27A031562B98314424A031803099
:104468002A005D06F00080307002031D3D2A783076
:104478005C020318402A562B80305D06F10080301C
:104488007102031D492AC8305C020130031800304C
:10449800F10080305D06F00080302B003706700296
:1044A800031D592A36082A005C022A000130031825
:1044B8000030F00070087105F3005C082B0036022C
:1044C800F1002A005D082B00373BF2008030F00035
:1044D800803072067002031D732A7108643C013033
:1044E80003180030F0007308F00503197C2A562BD6
:1044F8002A005C082B00B6002A005D082B00B700D4
:10450800280031082B00B800B90127005B082B00F0
:10451800BA00BB0128004708013A031D952AC701C4
:10452800972A0130C7009031CF27A03128004708CB
:104538002B00C70090319D27A0310230FB000430CA
:10454800FC00BA30FD00FD0BA72AFC0BA72AFB0BC9
:10455800A72A000098314424A03180302A005D0643
:10456800F00080307002031DBB2A78305C0203180B
:10457800BE2A562B98313D26A03100302A005D0610
:10458800031DC82A00305C06031DCE2A9031CF27B0
:10459800A031562B98314424A03180302A005D0682
:1045A800F00080307002031DDB2A78305C020318AB
:1045B800DE2A562B002000302A005D06031DE62A5D
:1045C80000305C06031DEC2A9031CF27A031562B12
:1045D80098314424A03180302A005D06F0008030F4
:1045E8007002031DF92A78305C020318FC2A562B46
:1045F800EE2000302A005D06031D042B00305C0607
:10460800031D0A2B9031CF27A031562B9831442413
:10461800A03180302A005D06F00080307002031D52
:10462800172B78305C0203181A2B562B80302B007E
:104638003706F00080302A005D067002031D272B24
:104648005C082B0036020318552B28004708013A4E
:10465800031D302BC701322B0130C70047082B0040
:10466800C70090319D27A0312B0038082800B100E1
:104678002B003A082700DB002B003808CF008831D0
:10468800DE26A03127005B082B00CF0088317F276A
:10469800A0312B0036082A00DC002B0037082A003E
:0646A800DD0064000800C3
:1046AE0064002A006D08043A0130031D0030F10049
:1046BE006D08053A0130031D0030F0007108F0045A
:1046CE000319102C21006D08003A031DC22B2C007B
:1046DE00A4010830A5003C30A6000230A700093026
:1046EE00A8008031C024A03102302C00A40010306C
:1046FE00A5003330A6000230A7000830A800803194
:10470E00C024A03104302C00A4001030A5002A30A3
:10471E00A6000230A7000830A8008031C024A031C6
:10472E0006302C00A4001630A5005830A60000302C
:10473E00A7000730A8008031C024A03164001130DA
:10474E00FB003C30FC00CB30FD00FD0BAC2BFC0B1A
:10475E00AC2BFB0BAC2B64000B30FB002630FC00AB
:10476E005D30FD00FD0BB92BFC0BB92BFB0BB92BF0
:10477E000000000064000430FB000C30FC003330FD
:10478E00FD00FD0BC82BFC0BC82BFB0BC82B000030
:10479E00000028003208013A031DE32B2C00A4016F
:1047AE001030A5004F30A6000030A7000830A8003A
:1047BE008031C024A031F02B2C00A4011030A500B4
:1047CE004630A6000030A7000830A8008031C02473
:1047DE00A03102302C00A4001030A5006030A600DD
:1047EE000030A7000830A8008031C024A031270077
:1047FE00610803190F2C2C00A4017030A50069303C
:10480E00A6000030A7000130A8008031C024A031DE
:10481E00A92C2A006D08003A0319A92C21006D0855
:10482E00003A031D522C2C00A401A501B130A600A4
:10483E000030A7001030A8008031C024A031013014
:10484E002C00A400A501A030A6000030A700103057
:10485E00A8008031C024A03164000D30FB002D3043
:10486E00FC00D730FD00FD0B3A2CFC0B3A2CFB0B59
:10487E003A2C0000000064000B30FB002630FC00D8
:10488E005D30FD00FD0B492CFC0B492CFB0B492C1C
:10489E000000000064000430FB000C30FC003330DC
:1048AE00FD00FD0B582CFC0B582CFB0B582C00005C
:1048BE0000002C00A4010830A5004430A6000030F2
:1048CE00A7000130A8008031C024A0312800320892
:1048DE00013A031D7F2C2C00A401A5013430A60043
:1048EE000030A7000830A8008031C024A0318B2CE6
:1048FE002C00A401A5012B30A6000030A700083023
:10490E00A8008031C024A03101302C00A400A501E4
:10491E002230A6000030A7000830A8008031C02445
:10492E00A031270061080319A92C2C00A40108301E
:10493E00A5003D30A6000030A7000130A800803150
:0E494E00C024A031640088310020A031080090
:10495C0064002600C7012A00BC01BD012600C60167
:10496C0098314424A03180302A005D06F00080305C
:10497C007002031DC32C6E305C020318C62C952DDF
:10498C009031CF27A03121006E08003A031DD12CA5
:10499C0088310020A0310230FB000430FC00BA301A
:1049AC00FD00FD0BD72CFC0BD72CFB0BD72C0000E0
:1049BC0098314424A0312A005C082900EA002A001E
:1049CC005D082900EB0080302A005D06F000803085
:1049DC007002031DF32C6E305C020318F62C952D1F
:1049EC008030F10080303F067102031DFF2C3E0821
:1049FC006E3C013003180030F10080303F06F000AF
:104A0C0080305D067002031D0D2D5C083E020130E6
:104A1C0003180030F0007108F0050319162D952DC0
:104A2C00DC2100302A005D06031D1E2D00305C06C3
:104A3C00031D242D9031CF27A031952D80302A00D5
:104A4C005D06F00080307002031D2E2D78305C0264
:104A5C000318312D952D24006F08053A0130031DE4
:104A6C000030F10021006F08053A0130031D0030C1
:104A7C00F0007108F0050319442D952D6F08053CC5
:104A8C0003184D2D6C08EB000130EC000020803039
:104A9C002A005D06F00080307002031D572D78301F
:104AAC005C0203185A2D952D24006F08053C031841
:104ABC00652D28004908CA000130C900EE202100EC
:104ACC006F08053A031D6D2D0130EC007A2D6F082F
:104ADC00063A031D742D0230EC007A2D6F08073A4C
:104AEC00031D7A2D0430EC0024006F08053A031DD9
:104AFC00832D01302800C900942D24006F08063A3C
:104B0C00031D8C2D02302800C900942D24006F0841
:104B1C00073A031D942D04302800C90064000800D6
:104B2C0064002A006D08043A0130031D0030F100C6
:104B3C006D08053A0130031D0030F0007108F004D7
:104B4C000319B72D02302C00A4004030A500C8304A
:104B5C00A6000230A7000430A8008031C024A03188
:104B6C00CE2D2A006D08003A0319CB2D01302C00F4
:104B7C00A4000430A500C330A6000230A700043006
:104B8C00A8008031C024A031CE2D22000D178D1726
:104B9C00AE242A006D08003A031DF72D8030F0007A
:104BAC0080305D067002031DDD2D5C08963C031CF5
:104BBC00E32D22000D138D17F62D8030F000803080
:104BCC002A005D067002031DED2D5C08FA3C031CE7
:104BDC00F32D20000D138D13F62D20000D178D13C2
:104BEC000C2E20006F08003A0130031D0030F1003C
:104BFC0021006E08003A0130031D0030F0007108EE
:104C0C00F00403190C2E88310020A031FF302B004A
:104C1C00C70027005B082B00C8009031B127A031DA
:104C2C00FE302B00C700280031082B00C800903143
:104C3C00B127A031FD302B00C700280047082B00FE
:104C4C00C8009031B127A031FC302B00C7002900DF
:104C5C006B08F0000030EB1BFF30F10070082B00EC
:104C6C00C8009031B127A031FB302B00C7000030B9
:104C7C00F4000130F50029006A08F0006B08F1001F
:104C8C0098311125A0317808F0007908F1007008EE
:104C9C002B00C8009031B127A03110302900D6006C
:104CAC002730D70010302600C4002730C5009831BB
:104CBC000020A0312A005C082700DF002A005D08D4
:0E4CCC002700E00022008C130C176400080083
:104CDA002B00A9019031EB27A03170082A00BA00F5
:104CEA0001302B00A9009031EB27A03170082A006F
:104CFA00BB007008003A031D892E21000D138D1385
:104D0A0022000D178D178F2E21000D178D172200E7
:064D1A000D138D130800CB
:104D20002A003B08013C03189C2EAE302B00EB0000
:104D300080317627A031AD2E2A003B08013A031DB1
:104D4000AD2EB201B8012C00AE018031C122A031DC
:0C4D50002C00AE018031C122A03108000F
:104D5C00640021009712171697111715971064000D
:104D6C0023008C010C148C148D01220091139313CD
:104D7C0078302100990020008C018D018E0140308B
:104D8C0022008C008D018E01033021008C00073035
:104D9C008D008E0198315027A0311E149E1495134E
:0C4DAC0024000D148D140D158B1308004D
:104DB800B831E025A031031AE42E01302300EF00BA
:104DC800AE260330FB000830FC007730FD00FD0BF9
:104DD800EB2EFC0BEB2EFB0BEB2E6400B831002006
:104DE800A0316D262A006D08003A031DFE2E220010
:104DF8000D178D1728002C08F0008031E827A03106
:104E080027006208F4006308F5006408F6006508E6
:104E1800F70088314723A03180317B26A031700804
:104E28002800AD007108AE000530FB000F30FC0013
:104E3800F130FD00FD0B1E2FFC0B1E2FFB0B1E2F50
:104E4800640021006F08053A031D2D2F0130EC0086
:104E58003A2F6F08063A031D342F0230EC003A2F20
:104E68006F08073A031D3A2F0430EC0024006F083E
:104E7800053A031D432F01302800C900542F240090
:104E88006F08063A031D4C2F02302800C900542F22
:104E980024006F08073A031D542F04302800C90066
:104EA80098315F27A03121005C08003A031DAA2F22
:104EB800FF302B00A9009031EB27A03170082700A4
:104EC800DB00FE302B00A9009031EB27A0317008E1
:104ED8002800B100FD302B00A9009031EB27A0314C
:104EE80070082800C700FC302B00A9009031EB2780
:104EF800A03170082900EB00EA01FB302B00A90063
:104F08009031EB27A03170082900EA070030EB3D0B
:104F1800280031082B00CF008831DE26A031270079
:104F28005B082B00CF0088317F27A0312800470875
:104F38002B00C70090319D27A03123006F08013A4C
:104F4800031DA92F01302100ED00572388310020CF
:104F5800A031640098310020A03121005C08003A9B
:104F6800031DBA2FB0310020A031BD2FB031682306
:104F7800A031003028002E06031DC42F00302D0656
:104F88000319CB2F0130AD020030AE3BDE2F2100DC
:104F98005C08003A0130031D0030F10028002C089D
:104FA800003A013003190030F0007108F0050319C8
:084FB800DE2F9026AD2FDF2F44
:1050000001302B00A9000030AA006400883160271D
:10501000A8312A006D08043A0130031D0030F10068
:105020006D08053A0130031D0030F0007108F004EE
:10503000031960282C00A4010130A500AB30A600A4
:105040000130A7000A30A8008031C024A831023006
:105050002C00A4000130A500A030A6000130A7005C
:105060000A30A8008031C024A83104302C00A400EC
:105070000130A5005C30A6000130A7000A30A8006E
:105080008031C024A83106302C00A4000130A500D6
:10509000B630A6000130A7000A30A8008031C02435
:1050A000A83164000530FB000F30FC00F130FD003A
:1050B000FD0B5828FC0B5828FB0B582864008C2843
:1050C0002A006D08003A03198C282C00A401A501C0
:1050D000DD30A6000130A7001130A8008031C024C7
:1050E000A83101302C00A400A501CB30A60001306E
:1050F000A7001130A8008031C024A8316400053019
:10510000FB000F30FC00F130FD00FD0B8528FC0B8F
:105110008528FB0B852864008030F00080302B0050
:105120002A067002031D96282908003C0318E92C62
:10513000640000302A06031D9F2801302906031D44
:1051400075290A30F4000030F5002A005008F000FC
:105150005108F10098311125A83170082C00A400E5
:105160007108A500AB30A6000530A70080314525A9
:10517000A8312A006D08043A0130031D0030F10007
:105180006D08053A0130031D0030F0007108F0048D
:105190000319F4282C00A4011030A500C130A6008A
:1051A0000130A7000930A8008031C024A831640074
:1051B00003302C00A4000630A500AB30A60005305B
:1051C000A7000630A8008031C024A8316400033055
:1051D000FB000830FC007730FD00FD0BED28FC0BD8
:1051E000ED28FB0BED2821292A006D08003A031950
:1051F00021292C00A4010130A5005230A600013065
:10520000A7000930A8008031C024A83101302C004B
:10521000A4000130A500AB30A6000530A700063081
:10522000A8008031C024A83164000330FB0008309E
:10523000FC007730FD00FD0B1B29FC0B1B29FB0B31
:105240001B290D302B00EB000030EC000230ED008C
:105250003230EE00EF0188316324A8317008031961
:105260004B29640080302A005106F0008030700223
:10527000031D3C29BE305002031842290A30D007D2
:105280000030D13D9C30FC00D730FD00FD0B46299D
:10529000FC0B462964000D302B00EB000030EC00C5
:1052A0000130ED003230EE00EF0188316324A83187
:1052B00070080319752964008030F00080302A00DE
:1052C00051067002031D662950086E3C03186C29B4
:1052D0000A30D0020030D13B9C30FC00D730FD00BA
:1052E000FD0B7029FC0B7029640000302B002A068E
:1052F000031D7C2902302906031D532A0A30F400BD
:105300000030F50029006C08F0006D08F1009831BC
:105310001125A83170082C00A4007108A500AB303D
:10532000A6000530A70080314525A8312A006D0868
:10533000043A0130031D0030F1006D08053A0130D8
:10534000031D0030F0007108F0040319D1292C006E
:10535000A4011030A5003130A6000130A7000730AD
:10536000A8008031C024A831640003302C00A400C0
:105370000630A500AB30A6000530A7000630A80017
:105380008031C024A83164000330FB000830FC00E9
:105390007730FD00FD0BCA29FC0BCA29FB0BCA297B
:1053A000FE292A006D08003A0319FE292C00A401E9
:1053B0000130A5002930A6000130A7000730A80061
:1053C0008031C024A83101302C00A4000130A50098
:1053D000AB30A6000530A7000630A8008031C024FD
:1053E000A83164000330FB000830FC007730FD007A
:1053F000FD0BF829FC0BF829FB0BF8290D302B00CD
:10540000EB000030EC000230ED003230EE00EF0136
:1054100088316324A83170080319292A6400803078
:1054200029006D06F0008030033A7002031D1A2A2D
:1054300084306C020318202A6430EC070030ED3D04
:105440009C30FC00D730FD00FD0B242AFC0B242AE5
:1054500064000D302B00EB000030EC000130ED005B
:105460003230EE00EF0188316324A831700803194F
:10547000532A64008030F000803029006D067002ED
:10548000031D442A6C08003C03184A2A6430EC02CD
:105490000030ED3B9C30FC00D730FD00FD0B4E2A68
:1054A000FC0B4E2A640000302B002A06031D5A2AEA
:1054B00005302906031D1A2B28002C082C00A400F7
:1054C000A501AB30A6000530A70080314525A831E5
:1054D0002A006D08043A0130031D0030F1006D0808
:1054E000053A0130031D0030F0007108F004031983
:1054F000A32A2C00A4011030A5003930A6000130E9
:10550000A7000730A8008031C024A8316400033010
:105510002C00A4000630A500AB30A6000530A70083
:105520000730A8008031C024A83164000330FB009C
:105530000830FC007730FD00FD0B9C2AFC0B9C2AF8
:10554000FB0B9C2AD02A2A006D08003A0319D02AA6
:105550002C00A4010130A5004A30A6000130A700AC
:105560000730A8008031C024A83101302C00A400ED
:105570000130A500AB30A6000530A7000630A8001A
:105580008031C024A83164000330FB000830FC00E7
:105590007730FD00FD0BCA2AFC0BCA2AFB0BCA2A76
:1055A0000D302B00EB000030EC000230ED0032300B
:1055B000EE00EF0188316324A83170080319F12A45
:1055C00064005A3028002C020318E82A0A30AC077D
:1055D0009C30FC00D730FD00FD0BEC2AFC0BEC2AC4
:1055E00064000D302B00EB000030EC000130ED00CA
:1055F0003230EE00EF0188316324A83170080319BE
:105600001A2B640028002C08003C0318112B0A30C8
:105610002C02F1007108AC000A3071020318112B42
:10562000AC019C30FC00D730FD00FD0B152BFC0BB2
:10563000152B640000302B002A06031D212B04309B
:105640002906031DD62B28006F082C00A400A501F5
:10565000AB30A6000530A70080314525A8312A00CF
:105660006D08043A0130031D0030F1006D08053A61
:105670000130031D0030F0007108F0040319692B9C
:105680002C00A4011030A5004130A6000130A70075
:105690000830A8008031C024A83103302C00A400B9
:1056A0000630A500AB30A6000530A7000730A800E3
:1056B0008031C024A83164000330FB000830FC00B6
:1056C0007730FD00FD0B622BFC0B622BFB0B622B7A
:1056D000962B2A006D08003A0319962B2C00A40182
:1056E0000130A5006730A6000130A7000830A800EF
:1056F0008031C024A83101302C00A4000130A50065
:10570000AB30A6000530A7000630A8008031C024C9
:10571000A83164000330FB000830FC007730FD0046
:10572000FD0B902BFC0B902BFB0B902B0D302B00CB
:10573000EB000030EC000230ED003230EE00EF0103
:1057400088316324A83170080319B62B64006330D4
:1057500028006F020318AD2BEF0A9C30FC00D730F5
:10576000FD00FD0BB12BFC0BB12B64000D302B00A9
:10577000EB000030EC000130ED003230EE00EF01C4
:1057800088316324A83170080319D62B64002800DF
:105790006F08003C0318CD2BEF039C30FC00D73082
:1057A000FD00FD0BD12BFC0BD12B640000302B0036
:1057B0002A06031DDD2B03302906031DAF2C2A000A
:1057C0006D08043A0130031D0030F1006D08053A00
:1057D0000130031D0030F0007108F00403192D2C76
:1057E0002C00A4011030A5004E30A6000230A70006
:1057F0000830A8008031C024A83121006E08013A89
:10580000031D112C03302C00A4001030A5004630DD
:10581000A6000230A7000730A8008031C024A831BC
:105820001F2C03302C00A4001030A5005730A60018
:105830000230A7000730A8008031C024A83103300F
:10584000FB000830FC007730FD00FD0B252CFC0B25
:10585000252CFB0B252C64006E2C2A006D08003AC9
:1058600003196E2C2C00A4010130A500A030A60065
:105870000230A7000830A8008031C024A8312100E0
:105880006E08013A031D532C01302C00A400013096
:10589000A5006730A6000230A7000730A8008031BD
:1058A000C024A831612C01302C00A4000130A500D7
:1058B0005F30A6000230A7000730A8008031C02466
:1058C000A83164000330FB000830FC007730FD0095
:1058D000FD0B682CFC0B682CFB0B682C0D302B008F
:1058E000EB000030EC000230ED003230EE00EF0152
:1058F00088316324A831700803198F2C64002100BB
:105900006E08003A031D862C0130EE009C30FC002E
:10591000D730FD00FD0B8A2CFC0B8A2C64000D3067
:105920002B00EB000030EC000130ED003230EE00D7
:10593000EF0188316324A83170080319AF2C64008B
:1059400021006E08013A031DA62CEE019C30FC00DC
:10595000D730FD00FD0BAA2CFC0BAA2C64000D30E7
:105960002B00EB000030EC00ED013230EE00EF01D7
:1059700088316324A83170080319E82C0730FB0034
:105980001730FC006A30FD00FD0BC42CFC0BC42C4E
:10599000FB0BC42C0000640020000D1CE32C2B002A
:1059A000A90A0319AA0A8030F00080302A06700282
:1059B000031DDC2C2908053C0318E22C0130A9004A
:1059C0000030AA00E72C2B006400A901AA016400A2
:1059D0008C280A30F4000030F5002A005008F0004E
:1059E0005108F10098311125A83170082B00B4003E
:1059F00098311527A8317008C8000430C7009031CD
:105A0000B127A8310A30F4000030F50029006C08F5
:105A1000F0006D08F10098311125A83170082B00B5
:105A2000B40098311527A8317008C8000630C700A7
:105A30009031B127A83128002C082B00B4009831F0
:105A40001527A8317008C8003230C7009031B1273F
:105A5000A83128006F082B00B40098311527A83111
:105A60007008C8003430C7009031B127A831210038
:105A70006E082B00B40098311527A8317008C800B3
:105A80003330C7009031B127A83128002C08F0002E
:105A90008031E827A83127006208F4006308F50088
:105AA0006408F6006508F70088314723A831803183
:105AB0007B26A83170082800AD007108AE00640094
:105AC00001302100ED00A0315723A8310B30FB003D
